:020000041000EA
:101000005009002019100010D5100010D710001042
:1010100000040000000000000248854602488047A6
:1010200012E0000050090020D1100010002A0AD060
:10103000042A00D20422920803680B60013A02D00D
:1010400004300431F8E7704711481249124AFFF79B
:10105000EDFF12481249134AFFF7E8FF12481349FF
:10106000134AFFF7E3FF13481349002906D0890804
:1010700000220260013901D00430FAE70F488546AA
:101080000F4880470F488047002000210E4A9746AE
:1010900008510010B0090020200000002851001065
:1010A000D009002000000000D04F00100C000020EC
:1010B00038010000500900205800000050090020AD
:1010C00051110010CD100010A11B0010C046704738
:1010D000C0467047FEE7FEE7FEE7FEE7FEE7FEE7F5
:1010E000FEE7FEE7FEE7FEE7FEE7FEE7FEE7FEE7D8
:1010F000FEE7FEE7FEE7FEE7FEE7FEE7FEE7FEE7C8
:10110000FEE7FEE7FEE7FEE7FEE7FEE7FEE7FEE7B7
:10111000FEE7FEE7FEE7FEE7094A10B51368094C53
:101120001804030E116808D01802CBB2C118064883
:1011300001F0F0FC4100216001E0044A226010BD92
:1011400000030140A4090020000024F40048E80145
:1011500008B5FFF7E1FF08BD4D498323CA6FF0B51D
:101160001A434C4DCA67E86F4B4E0343EB67F46F6D
:1011700080273A061443F467F36F1A43F26780201E
:10118000CE6F4705454B3E42F9D1EC6F444A3C4295
:10119000F5D1444907200D68434F05430D60396878
:1011A0000224214380203960A0401F583F4C8121F8
:1011B00027431F5089005858822720435850BF00AA
:1011C000D8593B4E2043A024D851A4001F59394D73
:1011D000381C80273F0638431851545801200443D7
:1011E000545057588024640227435750A1218C0043
:1011F00017598020010639432F481151476AC824E6
:1012000024022E49274347624F6A3C434C62846A5A
:10121000271C0524274387628F6A3C438C62042481
:10122000C4620220C862F76F80218C042743F767ED
:10123000EE6FD8213443EC67E42568001F58022480
:10124000490027431F505D58012635435D501C4B14
:10125000C425A5405F591B4E3E405E518025EF02DC
:101260001F601658FF273443145050581024204351
:101270005050C522950059598026B9433143740313
:1012800059511C60104DF0239A002A66F0BDC046EB
:101290000404034804080348040003480004034806
:1012A00000080348880403488808034841030000F5
:1012B0000804034808080348FC040348FC080348E2
:1012C00000E100E0FFFF00FF00020440234B70B587
:1012D0001878002840D122490A78002A3CD0214DB4
:1012E000C026B600AC59002C36DA00F061FA1E4C6C
:1012F000C30719D4AB5920880A21C0009EB201F05F
:1013000057FC864210DAA5780135EBB2A370012BA9
:1013100019D9164C02262069154D304320612A68E0
:1013200010218A432A600EE000F042FAC30711D56B
:10133000C0218A00AD5823880A267343A8B2D91069
:101340008842E0DC06E00B4B0B4E58785C68864028
:10135000666001E00022A27070BDC046B80900209E
:1013600060090020000403485009002000010448DF
:10137000A4040050904E001001000100054AC12352
:1013800098001158002903DA1258034B90B21880C4
:101390007047C046000803485009002000000000C4
:1013A000F7B5614D286803F07DFB5C4B5A4A02F0AB
:1013B0001FFD021C0B1C5A485A4902F03DFA01F06D
:1013C000ABFC5A4C0138206020686E6802F0E0F9EE
:1013D000311C01F0B3FE01F087FC60602768544ABD
:1013E00054495548554B5F6357634F63476365687E
:1013F0000027C563266801364664CF634F64D76310
:101400002568013555646668A025013EDE6367687E
:10141000EE05013F5F643569494F3D43356105681D
:10142000484F3D430560BC46476801252F43476050
:101430000F6865462F430F604F6801252F434F60AB
:10144000176865462F431760576801252F4357607B
:101450001F6865462F431F605F6801252F435F604B
:10146000F7680F252F43F760876C1E263743876484
:10147000886CA82730438864916C00200E439664E2
:10148000314A390615693D43156116690E431661E7
:1014900055690D43556156693E43566190619569A2
:1014A00003262F439761976928483943916128495A
:1014B00000254A6A32434A62264A4863CD63176967
:1014C00001263743081C1761A430056804210D4329
:1014D0000560C5272048BE008559AC461F4D6746AC
:1014E0003D4085518026B5030560D068012707433C
:1014F000D7601E1C00222272A8363568202425439E
:1015000035603068A433084330601F683943196080
:10151000F7BDC046C046C0460000000000403F4046
:101520000000000065CDCD41B00900205809002021
:101530000003005000020050000100500004005061
:101540001111000007000100000004408A50000053
:10155000000104480000044800E100E0FF00FFFF34
:10156000F0B5854C85B0637A002B00D1F1E0267A86
:10157000351E77D120682168E768009103F060FA92
:10158000784B774A02F034FC02900391009803F004
:1015900057FA754A754B02F02BFC754A754B02F0F1
:1015A0004BF900900191381C133803F049FA021CE2
:1015B0000B1C0098019902F01BFC021C0B1C0298EA
:1015C000039902F087FE01F0A7FB7B1C6060E360DB
:1015D0006A4A132B2ED801211172206803F030FAC9
:1015E000604B5F4A02F004FC01F096FB644F04225A
:1015F00060602674FA626068624B6349D86326684B
:10160000624F01365E64CD634D64FD6325686048BA
:1016100001357D642268A0230132C2632468DE059F
:101620000134446431695B4F39433161B5693D42EE
:10163000FCD188E01672F3225343574E5748F31AF1
:10164000123F4363472F04D9E56001252572544CAE
:101650004463544E012132690A433261B369D907A8
:10166000FCD401E002216172434F387C0130C5B2E5
:101670003D743C7C66B2052E01DD00223A74397C53
:1016800048B205284FD83E4B3E4C3F4E3F4A01F0F2
:1016900037FA030E1827333C0420D8627D680023F4
:1016A000E563396801316164F363736422E0022009
:1016B000D8627D68E5633968013161640021F163B6
:1016C00008E001250021DD62E1633B6801336364CA
:1016D0007C68F4633B6801337364D163516422E036
:1016E0000421D9620023E36363647C68F46338688F
:1016F00001307064D36313E000250220D862E563F3
:101700006564F5633B68013307E00120D86200237C
:10171000E3633D6801356564F36373647E68D66393
:101720003C68013454647968194A0139D1637F688F
:10173000A020013F5764C3051D69164E35431D6146
:101740009C693442FCD1184810240268224302608C
:1017500001E00120607205B0F0BDC046C046C04641
:101760009A9999999999D93F9A9999999999C93F2B
:10177000000000000000524058090020B00900207D
:10178000FC04034800010050000200500003005018
:101790000004005011110000936200000001044891
:1017A000FFFF000000000448A4040050C046C046EB
:1017B000014B187C7047C046580900200B4A10B5F1
:1017C000517A002911D10A4B80201C6B4000204324
:1017D00018631C6B07482040186307480123C4683E
:1017E0001C43C4601172054A137210BD58090020D1
:1017F00000000140FFFEFFFF00010448B009002087
:1018000070B5154C637A002B24D0144D20686E6897
:1018100001F0BEFF311C01F091FC01F065FA104AA5
:1018200060601169032001430E4B11611E690E4A6D
:1018300006431E6111690D4B014311611E690C4A7B
:1018400006431E6111690843106100206072207216
:1018500001242C7270BDC04658090020B009002038
:101860000001044800010050000200500003005035
:101870000004005038B50C4C051C637A002B04D1D1
:101880007D2802D9FFF79AFF06E0607A002803D08E
:101890007D2D01D8FFF7B4FF617A0020022901D124
:1018A0006560012038BDC04658090020404A73B524
:1018B0001378404C012B0AD13F4900200D6880234A
:1018C0000195FC35EE696073D8013043E861A17B76
:1018D000012922D11578022D1FD0384E02203369FC
:1018E00003433361F5682943F160617B0131CBB279
:1018F00063730C2B5BD90020607312783569032168
:101900000D43A27335612C4E80223368D5010193BB
:10191000FC33D8690543DD6101E01278A2732648E3
:101920000168051C0E1CFC36B3695A02510E0C29C5
:101930003DD9224B03211A690A431A61211C0D2249
:1019400000F0F0FB207B042805D0F4698025E90134
:101950002143F1612BE023786678A278222B0AD00C
:101960000DD80A2B04D00B2B09D1FFF749FF06E055
:10197000FFF724FF03E030021043FFF77BFF002056
:101980002618211CF2780F31425401300928F7D172
:10199000227F042001320A4E002308732277281C7C
:1019A0000D224B728B72CB72337000F0ECFB73BD67
:1019B000610900206C090020504E0010000304480B
:1019C000BC090020154B03215A6A15480A4330B55B
:1019D0005A620024134A5863DC63156910210D43D1
:1019E00015611D1CA4352C68042004432C60696813
:1019F000084368600C49C525AC000D590B480540EB
:101A00008020C00305430D510860D16802242143A2
:101A1000D160DA6801252A43DA6030BD000204484B
:101A2000FFFF00000000044800E100E0FFFF00FFAE
:101A3000144B15485A6A002230B55A62134A58634B
:101A4000D863146980214D002543181C1561A4300A
:101A5000046804210C430460A8331D68082425434E
:101A60001D60C5200A4B80001D58A540E54080241C
:101A7000E4052C431C50802005041D60D3681943E5
:101A8000D16030BD00030448FFFF0000000004489F
:101A900000E100E0054B064800225A7303688022EB
:101AA000FC33D969D0010843D86170476C09002024
:101AB000504E0010054B06491A7F587F904201D1C5
:101AC000012000E0002008705A7770476C09002060
:101AD000BC09002070470FB4F0B585B00AAA10CA3F
:101AE00003922378002B55D0201C0178041C013070
:101AF000252902D00029F8D1F3E7041C2578013408
:101B0000642D17D009D8302DEBD3392DF6D9582DA7
:101B100027D0632DE5D10432E3E7732D12D004D82A
:101B2000692D07D0702DDCD11BE0752D14D0782DD8
:101B3000D7D116E01668151DF317F61800950A2779
:101B40005E4012E0131D106800930130421E1178B0
:101B50000029FAD1009AC4E7171D009716680A27D2
:101B600003E0161D0096166810270125381C6843EF
:101B70000190B04206D8391C00F0CCFFA84201D138
:101B8000019DF3E7002DE5D0281C391C00F0C2FFB1
:101B9000051CF7E705B0F0BC08BC04B0184700000E
:101BA00007B500F021FCFFF7FBFBFFF7D5FAFFF7C5
:101BB00009FFFFF73DFF084B1868084B0190019A99
:101BC0008021FC32D069C9010143013BD161002B66
:101BD000F5D1FFF76BFEFCE7504E0010A086010028
:101BE000012040427047012040427047002070476A
:101BF000012040427047012040427047484248411E
:101C0000C0437047401A431E9841C04370470120AB
:101C1000404270470A4B1A68002A04D1094A0A490F
:101C20001A6052185A601A68D11D08180721884393
:101C30005968884201D2186000E00022101C7047E9
:101C40008C090020D00900203036000001204042DD
:101C500070470120404270470120404270470120F8
:101C600040427047012040427047FEE77047012024
:101C70004042704703680222196C70B591431964A1
:101C8000DD6803242543DD601E6980210D02354394
:101C90001D61068D1C69B1058D0D2543061C1D6156
:101CA00030363178C0260D02818D964035408E0247
:101CB000F821C9015C69314029432143448D394DE4
:101CC00026042E40314359615C6B81214E0026432E
:101CD0005E63818BFC250E04AD033540F02636058E
:101CE00009065C6B31402943214359639C6BA02555
:101CF000E90021439963457DDE6B69000124264399
:101D00000A403243C68DF8253402690121400A4356
:101D1000DA63421DD67F002E03D0DC6B20252C43D6
:101D2000DC63811DCA7F002A03D0DE6B402426437A
:101D3000DE63C51DE97F002903D0DA6B80263243BC
:101D4000DA63847F002C0BD0451CE97F1E1CFC3617
:101D5000FC25F4680A02A90111402143F16004E066
:101D60009D6C80218A012A439A64C67F002E0DD083
:101D70001A1CFC32156980246605811C2E43CD7F18
:101D8000FC212C028D01254035431561807D1A6CA4
:101D9000C02104028D0002261643254035431D64F0
:101DA00070BDC0460000FF0310B54368027A0124ED
:101DB00059689440221C0A435A60007A032808D8C4
:101DC000C2000332182019699040041C0C431C61A6
:101DD00023E0011F032908D8C900033118205A69DC
:101DE0008840041C14435C6117E0041C083C032C6D
:101DF00008D8E100033118209A698840041C144374
:101E00009C610AE00C38032807D8C200033218206E
:101E1000D9699040041C0C43DC6110BD10B5002151
:101E2000041C00F039FF002803D080231806201876
:101E300000E0201C10BD0000F0B59FB00891099291
:101E4000041C01F0A5FC6F4900F086FFFE21890506
:101E5000069000F035FF002802D105906A4B03E0A0
:101E6000231C0120684C0590002501220A940E9342
:101E700012921695009504950195009E0327013650
:101E800000960099019B394003919D002820382637
:101E90006F46441971190398CB59E25986002824DA
:101EA00002930792A219D3510299079800F032FECB
:101EB0001AAC3051071C0299079800F06FFE3823C6
:101EC0009A1968461150009912AB012903D166682E
:101ED00017915E600CE05C59049A7C43920098581C
:101EE0002118995116ABEC587C43D758E219F2509F
:101EF000039816AF8300DC598021C80012AE8442DB
:101F000062D9049C72597D59A3000095DD5900994E
:101F1000401B019200F0FEFD0399039A01398B00EA
:101F2000F458DF5944437843023A910076584519F2
:101F30000598A419002806D0019A0099231C019144
:101F40002C1C00921D1C009E002E50D0019F002FC3
:101F50004DD0002D49D0002C47D0381C01F018FC82
:101F6000061C009801F014FC011C301C00F0F4FE6B
:101F7000011C069801F012FA0021071C00F08CFEEB
:101F8000002802D080200306FF18201C01F000FC6E
:101F9000061C281C01F0FCFB011C301C00F0DCFEC0
:101FA000011C069801F0FAF90021061C00F074FEED
:101FB000002802D0802211067618381C311C00F04F
:101FC0007FFE002811D012E00EAD019F5A590497F0
:101FD000002A02D0039C01944FE7F55805992B1C69
:101FE000002904D1251C1C1C01E0009D019C074810
:101FF000844200D9041C099B089F013D1C603D6080
:102000001FB0F0BD00504345350C0000FF03000039
:102010000E4A10B5C0230E4C536221680D4801438F
:102020002160236908210B43236120684000FCD410
:10203000094BC32418685462027D1C1C012A01D17B
:10204000FFF7B2FE2068FFF715FE10BD000001404B
:10205000000301400000F03FC0090020704700006D
:10206000F0B50468171CA06CA26C02252A4085B04C
:10207000002652080193029603960323104232D0A1
:10208000236C081CAB43236402A903AAFFF7D4FE08
:102090002169039B880A82022261206999058A0DC1
:1020A000024322616069114B029903406361104B46
:1020B00062690804034013436361E26B0199AA4318
:1020C000E263E06B4B002B400343E363226C09485F
:1020D000C02310402064216C9A003F020D4317403A
:1020E0003D432564331C181C05B0F0BDFFFF00FC08
:1020F0000000FF03FFFCFFFF70B50368C07F0028EE
:102100000CD000201C1CFC34A5692E0709D4904279
:1021100007D0266A44000E530130F3E75A6D0120C0
:102120000A8070BD70B50368C07F00280BD0002006
:102130001C1CFC34A5692E0708D4904206D0266AE0
:102140000E540130F4E75A6D01200A7070BD30B5AD
:102150000368807F00280ED000201C1CFC34A56979
:10216000ED040FD490420DD044000D5BC0246400F8
:102170001D510130F1E79A6B140603D4088804332B
:10218000D867012030BD30B50368807F00280DD0AE
:1021900000201C1CFC34A569ED040ED490420CD028
:1021A0000D5CC02464001D510130F2E79A6B1406E7
:1021B00003D408780433D867012030BD02680F29A2
:1021C00003D80120936C884008E0FC320123906919
:1021D000122901D8103900E00B398B40011C19403D
:1021E0004B1E9941481C704703680F2906D80120EF
:1021F000DA6C8840011C1143D9640AE0FC330122E7
:10220000D869122901D8103900E00B398A400243FD
:10221000DA617047F0B51C4B1B681A785D7850B2D4
:10222000AD01002814DA0F21114008398808174C35
:102230008600032037190240FF2479688240261C5B
:1022400096402C40B14394400D1C25437D6010E026
:10225000840803270E49C034A0003A40FF24BA4046
:102260004658271C9740BE432C409440321C2243C2
:102270004250DA78012A05D11F781F233B400449D8
:102280009A400A60F0BDC046C409002018ED00E085
:1022900000E100E0054B00225868054B42600169EF
:1022A000016158684260026902617047904E0010F7
:1022B000884E001030B54378032B0ED84268DB00FF
:1022C0001F2014690333051C9D40AC43146114693D
:1022D000014099402143116138E01C1FE4B2032CF6
:1022E0000ED842681F23E000556903301C1C84404F
:1022F000A54355615469194081402143516125E04E
:102300001A1C083AD4B2032C0ED842681F23E000EE
:10231000956903301C1C8440A5439561946919405C
:1023200081402143916111E00C3BDDB2032D0DD8BA
:102330004268EB001F20D4690333051C9D40AC4369
:10234000D461D469014099402143D16130BD30B599
:102350004378032B0ED84268DB001F201469033337
:10236000051C9D40AC431461146901409940214310
:10237000116138E01C1FE4B2032C0ED842681F2301
:10238000E000556903301C1C8440A5435561546925
:10239000194081402143516125E01A1C083AD4B20A
:1023A000032C0ED842681F23E000956903301C1CE3
:1023B0008440A5439561946919408140214391610E
:1023C00011E00C3BDDB2032D0DD84268EB001F205D
:1023D000D4690333051C9D40AC43D461D4690140EA
:1023E00099402143D16130BD08B500F05DF800F09F
:1023F0005DF800F0F9F800F0C5F8FFF74BFFFFF7C4
:1024000007FEFFF707FF00F025F900F001F808BD0F
:102410009023DB0570B51C6C1A6C0F218A431A647B
:10242000D8690726B04306252843D8619A6A052053
:10243000B24302439A621D6B0422B5432E1C16431D
:102440001A1C1E63FC3215698020C6052E431661D6
:10245000D5681148114E05403543D5601569A02651
:102460002840F504284310611A6C80268A432140D5
:10247000114319640A4B80211C6935020C431C610D
:102480001869084A05431D615C69902122400802D1
:1024900002435A6170BDC046C0FFFFF8200000052E
:1024A00000010440FF47FFFF7047000070B5304C4B
:1024B000C0236362606A4007FCD42E4BFF201A6879
:1024C0001A601E681D68310485431D600E0E2A4A7D
:1024D0001968114319601868264D4000FBD4012E7D
:1024E00004D1C3236362FEF717FE70BDFF2108020B
:1024F0002D682249002E18D1054209D11C680C40D4
:102500001C601868104318601D686C00FCD4F5E767
:102510001868802501406E003143196019680A432C
:102520001A601A685600FCD4DBE72840000A042829
:1025300010D90326B04304301D68800806060D40FC
:10254000360C35431D601D6815431D601E687600FE
:10255000FCD4ECE71E688020314045002943196017
:1025600019680A431A601A685000FCD4B9E7C046DB
:1025700000000140000301400000F03FFF00FFFFAA
:1025800000207047134B70B51A681C1C002A20D11C
:102590001148124B026819695068014211D1104963
:1025A000C0254D621D680F4E35431D6001261D6913
:1025B0008640301C284318611D686D00FCD4C3237D
:1025C0004B6216688022F168500008430125F060D4
:1025D000256070BD98090020C80900200003014053
:1025E000000001400000F03F154B70B51A681C1C3C
:1025F000002A23D1134802685168022916D8124BC9
:1026000090681D69054211D11049C0264E621D68AF
:102610000F4E35431D6001261D698640301C28433E
:1026200018611D686D00FCD4C3234B6216688022BC
:10263000F168500008430125F060256070BDC04678
:102640009C090020CC09002000030140000001404B
:102650000000F03FF7B5394B586801900278002A26
:102660006AD1374E374C3168374F2143C02531602E
:102670007D62306901221043C32130617962346880
:102680006400FCD4314E1A68FF25356017680120BC
:10269000111C87431C7B802680C11F2037025E7B74
:1026A00004403C433702BC46C026B700664637406C
:1026B0003C43DF7DFE0135402C43CC67CC6F244D7D
:1026C000E0262540CD671C7C197DF8250F06F60411
:1026D00021046D039C7B2940374004400F4327436E
:1026E000BC469F7CE0213C02C9000C406746274362
:1026F000BC46171CA03764463C605F7D3C065F7C8F
:1027000026403C0425403543DE7B30402843DD7CB9
:10271000104E2F0239400143101CA430016059892A
:102720001B890C0434401D052F0D201CB832384382
:102730000199106001220A70F7BDC046AC4E00102E
:10274000000301400000F03F00000140000501408F
:10275000FF7FFFFF0000FF0F10B54168031C0A78E0
:102760000120824219D10D4A1B68D4680443D46009
:102770001A680B4C8243101C1A1C01C2D467D46F18
:1027800008482040D0671C1C074A0848A034B833CA
:102790002260626018600020087010BD00030140D4
:1027A00060FCFFFFFF7FFFFFE0F8E0F800F000F0C3
:1027B00043681A7801239A4204D1006801680B43E8
:1027C00003600023181C704743681A7801239A425B
:1027D00004D100680168994301600023181C704708
:1027E000436801211A788A4207D1006880230430A7
:1027F000C16F1A060A43C2670021081C7047000017
:102800000A4B0120596882B00A7882420BD1997D27
:102810000020012907D11B68802201930433D96F5E
:1028200012060A43DA6702B07047C046AC4E001089
:1028300043681A7801239A4205D100680821036889
:102840008B4303600023181C704743681A780123E8
:102850009A4205D10068082103680B4303600023F6
:10286000181C704743681A7801239A4210D1022934
:1028700002D9022305290BD10368E022A033D2003C
:10288000090218681140034A0240114319600023ED
:10289000181C7047FFF8FFFF43681A7801239A421B
:1028A0000AD102231F2907D803681F20A0331A6802
:1028B0008243114319600023181C704743681A783B
:1028C00001239A4210D1022902D9022305290BD1F2
:1028D0000368E022A033D204090618681140034AB5
:1028E0000240114319600023181C7047FFFFFFF8D6
:1028F00043681A7801239A420ED102231F290BD86C
:102900000368F822A0335203090418681140034AEF
:102910000240114319600023181C7047FFFFE0FFBD
:1029200043681A7801239A4210D1022902D902235E
:1029300005290BD10368E022A433D20009021868EC
:102940001140034A0240114319600023181C7047CC
:10295000FFF8FFFF43681A7801239A420AD1022345
:102960001F2907D803681F20A4331A688243114324
:1029700019600023181C704743681A7801239A4293
:1029800010D1022902D9022305290BD10368E022C4
:10299000A433D204090618681140034A02401143C7
:1029A00019600023181C7047FFFFFFF843681A786E
:1029B00001239A420ED102231F290BD80368F82263
:1029C000A4335203090418681140034A024011431A
:1029D00019600023181C7047FFFFE0FF031C4068CC
:1029E00002780120824205D11B6818688207D30F44
:1029F0000B7000207047031C40680278012082425F
:102A000003D11B689868086000207047184BC022EB
:102A100030B55A62586A1C1C430725D4154B012156
:102A20001D6802228D431D60186813499043186089
:102A30001D681248294019601D68114905401D6034
:102A40001D680D401D601D686D006D081D600D4BFB
:102A50001D6895431D601D6895431D601D682840D5
:102A60001860186801401960C321616230BDC0461A
:102A70000000014088000348FF7FFFFFFFFFFEFFCB
:102A8000FFFFFDFF8C0003481A4BC022F0B55A62CD
:102A9000586A1D1C430729D4174B012419680220CA
:102AA000214319601E68802206431E601F681102C0
:102AB000394319601E68802779020E431E601E6824
:102AC0008022920216431E601F68802636063E430F
:102AD0001E600A4B1F683C431C601C682043186042
:102AE00018680143196019680A431A60C3226A62B0
:102AF000F0BDC04600000140880003488C00034838
:102B000002B4714649084900095C49008E4402BC80
:102B10007047C046002934D00123002210B48842F7
:102B20002CD301242407A14204D2814202D20901FC
:102B30001B01F8E7E400A14204D2814202D249001D
:102B40005B00F8E7884201D3401A1A434C08A042C0
:102B500002D3001B5C0822438C08A04202D3001B56
:102B60009C082243CC08A04202D3001BDC0822436D
:102B7000002803D01B0901D00909E3E7101C10BC91
:102B80007047002801D00020C04307B4024802A1CA
:102B90004018029003BDC046D90000000029F0D0C3
:102BA00003B5FFF7B9FF0EBC4243891A1847C04668
:102BB000002941D010B4041C4C40A446012300223B
:102BC000002900D54942002800D5404288422CD334
:102BD00001242407A14204D2814202D209011B012F
:102BE000F8E7E400A14204D2814202D249005B002E
:102BF000F8E7884201D3401A1A434C08A04202D396
:102C0000001B5C0822438C08A04202D3001B9C08D6
:102C10002243CC08A04202D3001BDC082243002838
:102C200003D01B0901D00909E3E7101C6446002CFE
:102C300000D5404210BC7047002806D003DB0020BE
:102C4000C043400801E08020000607B4024802A10A
:102C50004018029003BDC046190000000029EBD0C7
:102C600003B5FFF7A7FF0EBC4243891A1847C046B9
:102C70007047C0468446081C6146FFE71FB500F058
:102C800015FA002801D40021C8421FBD10B500F07C
:102C90009DF94042013010BD10B500F007FA002840
:102CA00001DB002010BD012010BDC04610B500F0B2
:102CB000FDF9002801DD002010BD012010BDC04637
:102CC00010B500F0ABF9002801DC002010BD012098
:102CD00010BDC04610B500F0A1F9002801DA0020AF
:102CE00010BD012010BDC0469E2110B5C905041CB1
:102CF000FFF7F0FF002803D1201C00F029FD10BDD4
:102D00009E22201CD10500F049FB00F021FD80230C
:102D10001C060019F3E7C04638B50E4B0C4A041CDC
:102D20000D1C01F047FF002804D1201C291C01F0D4
:102D300053FE38BD074B064A201C291C01F0CAFA75
:102D400001F04AFE802319064018F2E7C046C0464B
:102D5000000000000000E041F0B55F4656464D46D9
:102D60004446F0B44502440083B00E1C6D0A240EA4
:102D7000C70F002C07D1002D00D091E004210122C3
:102D80008846924609E0FF2C55D080231804002184
:102D90000543ED007F3C88468A46331C5800760286
:102DA000D90F760A000E8B464CD101229446002E94
:102DB00000D081E05B467B406246414601930A4376
:102DC0000F2A50D9201A690181467501A94200D302
:102DD000B3E00122534299441B2400260127621EBE
:102DE000381C10404B007600002900DAA9E09D4213
:102DF00000D8A6E0013C002C00DCABE000280CD0A1
:102E0000191C76005B00002901DB9D4201D85B1B89
:102E10003E43013C002C00DC9CE059007200002B7A
:102E200001DB8D4201D8491B3A43013C4B0056005F
:102E30000029EADAEBE7002D2DD108200221804697
:102E40008A46AAE7FF2820D08022130400211E43CF
:102E50008C465B467B4062464146F6007F380193D4
:102E60000A430F2AAED8564992008A589746019BCA
:102E7000FF260025F0052843DE07304303B03CBCA5
:102E800090469946A246AB46F0BD331C5A1E93416C
:102E900002339C468EE70C22032390469A467CE739
:102EA000281C01F091FE7622441F5342A5401C1AB3
:102EB00000208046824670E7301C01F085FE7623B4
:102EC000411F8E405A420021101A8C4672E700239F
:102ED0003C4DFF26CEE75F46351C01976346022B2B
:102EE000C5D0032B63D0012B43D049467F31002945
:102EF00035DD0F272F40042F00D004352B0103D5DB
:102F0000314A494615408031FE29B0DCA801450A06
:102F1000CEB2019BAEE700260025ABE78020C103BF
:102F20000D4211D00E420FD10E4373025D0AFF26EF
:102F30005B469FE701975346D1E7491B1A240126B8
:102F40004CE75B1B3E4355E70D436A02550A3B1CA9
:102F5000FF268FE71D1C6B1E9D413543C5E77E2470
:102F600067424A46B91A1B2908DD019B0026002545
:102F700080E7019D00262B4000257BE74E469E36CC
:102F8000281CB5402B1C5D1EAB41C84003430F25D8
:102F90001D40042D00D004335A0103D5019B0126A6
:102FA000002567E79C01650A019B002662E78027F0
:102FB000FC0325436E02750A019BFF265AE7C046B3
:102FC000C44E0010FFFF7F00FFFFFFF743024200E7
:102FD00070B55C0AC60F130E48024A00450A120E6D
:102FE000C90FFF2B05D0FF2A08D0012093420BD038
:102FF00070BD0120002CFBD1FF2AF6D10120002D4D
:10300000F6D101209342F3D1AC42F1D18E4203D0EC
:10301000002BEDD1002CEBD10020E9E7F0B5430205
:1030200042004F00C60F48025C0A450A130EC90F42
:103030003A0EFF2B26D0FF2A29D0002B0CD160425C
:1030400060418446002A0AD0002816D18E4221D041
:10305000002E14D1012014E0002AF7D194466F42CB
:103060006F416046002805D1002FEFD00120002ECF
:1030700007D004E00020002F03D10029EAD101216C
:103080004842F0BD002CD6D002225042F9E7002D74
:10309000D3D0F9E79342DBDC04DBAC42D8D8002084
:1030A000AC42EED2002EEAD00120EAE7F0B54302AE
:1030B00042004F00C60F48025C0A450A130EC90FB2
:1030C0003A0EFF2B26D0FF2A28D0002B0FD0002A43
:1030D00014D194466F426F416046002814D00020FE
:1030E000002F03D100290DD101214842F0BD6042DB
:1030F00060418446002AEDD00028F3D18E4211D0E1
:10310000002EF1D10120F1E7002FF7D00120002E91
:10311000ECD0E9E70220002CE8D1D4E70220002D12
:10312000E4D1D2E79342EBDC04DBAC42E8D80020E8
:10313000AC42DBD2002ED7D00120D7E7F0B55F46F6
:1031400056464D464446F0B44502460083B00F1C37
:103150006D0A360EC40F002E06D1002D70D1042149
:1031600001228846924609E0FF2E43D080231804AE
:1031700000210543ED007F3E88468A46381C430007
:103180007F02C10F7F0A1B0E8B463AD10121002F0F
:1031900062D158466040424601900A430F2A3FD907
:1031A0002C04F018260C3B041A0C311C51433F0C24
:1031B0002D0C7E436A438146080C36182C1CB3182C
:1031C0007C439A4200D99AE009041D04080C2E1889
:1031D000B5011B0C691E8D41B20EE7181543BC01E9
:1031E00025432B014BD50120284001216D0889443E
:1031F000054344E0002D1ED10820022180468A4666
:10320000BCE7FF2B12D08022100407435846002150
:1032100060404246FF007F3B01900A430F2ABFD81F
:1032200090005B4A8446624410688746391C4A1EF7
:1032300091410231ADE70C22032390469A469DE767
:10324000281C01F0C1FC7622461F5342B5401E1ACD
:1032500000208046824691E7381C01F0B5FC7621BB
:10326000431F4A429F400021131A92E7019451469E
:1032700002292CD0032900D180E0012948D04E46F4
:103280007F36002E51DD0F242C40042C00D0043555
:103290002A0103D53F494E460D408036FE2E3DDDC6
:1032A000019B01241C40FF210025C805E20728439B
:1032B000104303B03CBC90469946A246AB46F0BDD5
:1032C0000024354DFF21F0E751460229D2D1019D5E
:1032D00001242C40FF210025E7E75E463D1C0196B6
:1032E000C6E73D1CC4E78026F3031D420BD01F42F6
:1032F00009D11F437A02550A5C46FF21D5E7802297
:103300005702E41960E71D436F027D0AFF21CCE7F5
:10331000019B00251940CCB20021C6E70198AD0100
:1033200001246D0AF1B20440BFE77E2673424A468B
:103330009F1A1B2F05DD019D01242C400021002533
:10334000B3E749469E312C1C8D402E1CFC40751E57
:10335000AE4126430F203040042800D004367001CF
:1033600005D5019F01243C40012100259DE7019ADC
:10337000B30101245D0A1440002196E78022D003A6
:1033800005436C020199650A01240C40FF218CE77A
:10339000044F0010FFFFFFF7FFFF7F00F8B5430267
:1033A00045004F024C00C20F980984462D0E200E96
:1033B000C90FBF09FF2854D0012671408A423BD073
:1033C0002C1A002C00DC89E0002825D1002F4BD1DD
:1033D0006E1C2C1C6346151C0F221A40042A00D0B8
:1033E00004338027F904012219402A40002906D01D
:1033F000FF2E00D181E0B14D341C2B400136F6B2D6
:10340000DD08012E62DD6B025D0AE4B2E4052543AE
:10341000281CD2071043F8BDFF2D51D08021CB04CA
:103420001F4301261B2C70DD67462C1CBB1B151C83
:10343000580122D4661CCFE72E1A002E76DD002814
:1034400032D0FF2D3CD08024E1040F4301231B2EFA
:1034500000DCD1E063442C1C58017AD4661C151C96
:10346000BAE7002FAAD1A7E7013C002C6DD1634633
:103470002C1CDB1B151C5801DCD59A019609301C4D
:1034800001F0A2FB05388640844239DC001B1F2373
:103490001A1A331C311C441C9340E1405E1EB34198
:1034A0000B430126002497E7002F00D190E7013E4F
:1034B000002E03D164463B192C1CCDE7FF2DC5D14E
:1034C000151C802263465600FF2485E7002D9CD002
:1034D000002C28D08020C7033D4394E7002C45D121
:1034E0006B1CD8B2012800DC90E06446E61B730137
:1034F00057D53E1B2C1C0D1CC1E7FF24002585E77A
:103500006E4B241A3340661C66E7381C2021E040CD
:103510000C1BA7403E1C771EBE41064367462C1C71
:10352000BB1B151C84E769024D0A6FE7002E79D199
:103530006C1CE0B201284BDDFF2C00D198E0614605
:103540007F18AE1C7B08151C46E7FF2D00D068E7EE
:10355000B6E7671CFF2F36D05848012119400340B9
:103560005B08A61C0B433C1C151C35E76642002D6E
:103570001ED0FF286FD080256246EB041A43944684
:1035800001251B2E09DC62462023F24064469E1B67
:10359000B440251C6C1EA54115437B1B041C0D1C4F
:1035A00069E7002E0CD1002201260423002426E71F
:1035B0006446002C55D1461C3B1C041C0D1C0BE71B
:1035C0002C1C151C5BE780235E00FF24042316E7F8
:1035D000002D00D08DE06546002D00D1ADE0002F1C
:1035E00000D181E07B195C0100D47EE0334F151CD3
:1035F0003B4002260124EFE6381C2023F0409E1BAE
:10360000B7403B1C5F1EBB41034323E7002D15D190
:103610006546002D47D1002FC5D03B1C0D1C01264F
:103620000024D9E67642002D26D16546002D00D033
:103630007DE0461C3B1C041C151CCDE66546002D98
:1036400040D1002F07D1802100224E001C4BFF24C7
:10365000D5E6FF2894D180203B1C0D1C4600FF249A
:10366000BAE6013E002EF4D13B1B0D1C041C02E700
:1036700080256E000423C2E6FF2852D080246146D4
:10368000E30419438C4601231B2E09DC20216446E8
:10369000F44065468E1BB5402B1C591E8B412343BD
:1036A000DB19041CD8E6002F1ED0EB1B58014BD5AC
:1036B0007B1B01260D1C00248EE6C046FFFFFFFB8E
:1036C000FCFFFF03002F00D1FAE68020EB08C403C3
:1036D000234237D0FF08274234D13B1C0D1C8022E7
:1036E000DB005600FF2477E66346151C0126002404
:1036F00072E66446002C14D0002F00D1E0E680234F
:10370000E608D803311C064203D0F908014200D074
:10371000311C151C8022CB005600FF245CE6FF28DC
:10372000B1D180203B1C151C4600FF2454E6013E0D
:10373000002EF4D17B19041C8EE63B1C151C0126BF
:10374000002449E6151CCAE7002B00D12BE7CCE783
:1037500043024200590A130EC20F00207E2B0DDDDA
:103760009D2B0CDC802000040143952B0ADC962065
:10377000C31AD9404842002A00D1081C70470349A7
:103780005018FBE7963B9940F4E7C046FFFFFF7FE8
:1037900010B5041E34D001F017FA9E231B1A962B85
:1037A00007DC083884406402610ADBB2D8050843AC
:1037B00010BD992B0ADD021C1B32211C91400A1CF2
:1037C000511E8A410521091ACC40144305281ADCF0
:1037D000184A0F2122400C40042C00D00432510121
:1037E00005D59F24231AFF2B21D012480240591CD3
:1037F000CCB2D208012C09DD5002410ADBB2D5E778
:1038000000230021D2E7421F9440E1E7002A0BD0B9
:10381000002B06D08021CC0322435202510ADBB296
:10382000C4E75002410AC1E7DBB20021BEE7FF2333
:103830000021BBE7FFFFFFFBF0B54D4644465F4666
:103840005646F0B41D1C4B00141C0E035B0DCA0F32
:1038500087B0071C360B98469146002B1DD1321CB1
:10386000024300D181E1002E00D104E2301C01F0BE
:10387000ABF9272800DDF8E12821031C083B0A1AD0
:10388000391C9E40D1400E439F40C14B0021181A65
:10389000002280468A4600920FE0BE48834231D023
:1038A00080214B031E43BC487A0FF6000021002301
:1038B0001643FF0080448A460093291C201C251CC7
:1038C0004A000C03CB0F240B520D9B4625D1211C23
:1038D000014300D150E1002C00D1C2E1201C01F0D5
:1038E00073F9272800DDB6E1031C2822083B291CB8
:1038F000121A9C40D1400C439D40A54B1A1A00203F
:10390000029019E0321C3A4300D029E10827022333
:10391000BA46002600270093CFE79E48824200D196
:1039200013E180214B031C439B49680FE4000023F3
:103930000443ED005218029348465B464340029808
:103940005146019301430F2900D8DFE043469A1AFC
:103950000492A64200D86EE171087B08F607334353
:10396000FA07894698460292280E240204432D0243
:103970002704390CAB46250C00914846291CFFF75B
:10398000C9F8009F061C4743291C4846FFF706F963
:10399000434608041A0C1043874207D90019013E18
:1039A000844203D8874201D9013E0019C11B8A46CF
:1039B000081C291CFFF7AEF8009B071C4343291C79
:1039C00050469946FFF7EAF8424610040B04010CF2
:1039D0000B43994504D91B19013F9C4200D864E16F
:1039E00036043E435F464A46390C89469B1A59467F
:1039F0003204170C0A0449467943120C03928C4690
:103A00000399300C7A4341434F4678438C44170C5A
:103A10006744B94202D9802149024018390C120486
:103A200040183F04110C7F18834200D227E100D1D7
:103A300041E102991B1ACF1BB942804141425A1AF7
:103A40009046A24200D15FE1101C291CFFF762F8EA
:103A5000009B02904343291C40469A46FFF79EF87C
:103A6000380C090401438A450AD9029A0919013A16
:103A700002928C4204D88A4502D9013A029209196D
:103A80005346C81A291C0590FFF744F8009A291CD0
:103A90004243804605989246FFF780F83F040D04A4
:103AA0003A0C2A43924509D901214B4212199844F4
:103AB000944203D8924501D998441219029D434675
:103AC0002F041F435046111A3804030C4D465D4322
:103AD0000398AC46039D3A0C584355434B465A4312
:103AE000AC44030C63449D4202D980256D025219F7
:103AF0001D0C000452191B04050C5B19914200D2E5
:103B0000E6E000D13DE1012217435AE08900234855
:103B10008C46604401688F46019B1E4A00260027A0
:103B200000200021381C0F0D3C051D4D34431205AB
:103B3000254015436E00DB077108194307B03CBCF4
:103B400090469946A246AB46F0BD211C032029436E
:103B5000029000D0F0E60223002400250293EBE659
:103B60000C20032182460091A7E604270123BA46D0
:103B7000002600270093A0E60121002400250291E1
:103B8000DAE601270023074E7F42024AC8E7C04613
:103B90000DFCFFFFFF07000001FCFFFF444F00107A
:103BA000FFFF0F80FFFF0F002F1C5A46029D261CAF
:103BB0000192022DB0D0032D00D101E1012D00D1E1
:103BC0009CE0049B82481A18002A00DC8CE00F2439
:103BD0003C40042C05D03B1DBB42BF417D427619C1
:103BE0001F1CF10105D57B4A04998020C4001640B2
:103BF0000A19794B9A4200DD8EE77507FF087602B5
:103C000051052F43360B4A0D019B89E70022002600
:103C1000002785E7802001030E4216D00C4214D104
:103C20000C432603360B5B462F1C6C4A78E74C4648
:103C30000194009DBDE7A64243D00498B8460138E0
:103C400000270490B14602978EE60E4333031E0B05
:103C5000624A4B4664E7041C283CA5402C1C002506
:103C60004BE600F0B1FF20303BE6061C283EB74093
:103C70003E1C002709E600F0A7FF2030F9E5029A74
:103C8000013E111C59445945924152421219D31810
:103C90009C4204D298426BD816D01B1ACBE6A342A2
:103CA000FBD18B45F6D9231AC5E6994500D897E68E
:103CB000013F1B1994E6029ABA42E0D3029900230D
:103CC000B9E6AF42B9D947E68F4251D80023B2E6F0
:103CD0000919013F58468C4219D9914200D012E788
:103CE000984200D00FE76CE73D4C049D631B382BD6
:103CF0001CDD019B00220026002711E7019B00220A
:103D00002B40002600270BE701277F4259E78A4214
:103D100003D800D0F7E69842E2D25D4668005845E5
:103D2000AD416D422C19013F0919D6E71F2B34DC38
:103D3000049C2C4A381CA518311CAF40D840A9401F
:103D40003C1C0143671EBC410F1C2743DE400F2370
:103D50003B40042B05D03A1DBA42BF417D42761943
:103D6000171C320211D5019B012200260027D7E63D
:103D700059445945924152421219D318013E1B1A17
:103D800059E6002BA4D10020AAE77007FF087102B2
:103D900007430E0B019B0022C2E61349049C301C12
:103DA0000A1BD040051C202B08D0104BE1188E4078
:103DB00037437B1E9F412F430026C8E70026F7E7C5
:103DC00080221003064331030E0B019B034AA7E632
:103DD000FF030000FFFFFFFEFE070000FF070000DB
:103DE00002FCFFFF1E040000E2FBFFFF3E04000098
:103DF000F0B5564644465F464D46F0B44F001D1C94
:103E00000B03141C1A0B7B0D87B0061C92469846B8
:103E1000CF0F002B21D1024300D149E15346002BA3
:103E200000D1E4E1504600F0CFFE031E272B00DD59
:103E3000D8E1083B5146994028228846111A321C85
:103E4000CA4041460A4392469E40D84B0022181A67
:103E5000002180469146039111E0D54883423ED02F
:103E6000802153464A031A43D000710F0843D14AB8
:103E7000824600230020F600904499460390291CB6
:103E8000201C251C4A000C03CB0F240B520D9B4613
:103E900031D1211C014300D112E1002C00D19DE160
:103EA000201C00F091FE272800DD91E1031C282250
:103EB000083B291C121A9C40D1400C439D40BB4B2F
:103EC00059461A1A794000204B46019103430F2BA3
:103ED00026D89900B84B8C46634419688F46111C4C
:103EE000314300D0DFE0082600200221B14682469F
:103EF00000260391C3E7AE48824200D1C9E0802189
:103F00004B031C43AB49680FE4000443ED00521817
:103F10000020594679404B46019103430F2BD8D9D5
:103F200042443304290404921A0C0F0C101C7843E9
:103F3000360C331C80462D0C7B43301C6843111C0F
:103F400069439C4643468346180C081860448445E0
:103F500000D91FE1010C4346039119040B0C000426
:103F6000C0182104240C0590101C6243090C029215
:103F70004843321C66434A43029BB146060C9046B6
:103F8000B4461A1C62444244904502D9802673020A
:103F90009944160CB046C14400044B46060C12046A
:103FA0000293931956463204100C021C6A439C4635
:103FB000031C7B439146320C574398461B0C9A4690
:103FC000D144B94455434F4502D980277E02AD19EB
:103FD0004B461F0C4646ED191F0433041E0C031CF0
:103FE0004B436043514354431A0C8018B046401869
:103FF00047449A46814202D980214E02A419039B6C
:104000001A1C62445A44624589414E425146B346A5
:1040100003040E049C460299330C6344CE18B04648
:10402000C246DA44D219BA42BF4151467B426F18A8
:10403000F9189946DA459B415E42029BB346984582
:10404000B64176425B461E43000C49459B41AF4258
:10405000AD4136186F425842384336180598341926
:1040600056020643CB0D6402701E8641D20D1643E4
:1040700049021C430E43E0012FD50127049D374020
:1040800073083E1CE00701351E430495064364088F
:1040900023E0231C2B430320002B00D039E700240E
:1040A0000025022035E70C22032391460393E6E620
:1040B000042600230120B1469A4600260390DEE63E
:1040C00000240025012024E703985446022844D008
:1040D000032800D1EAE0012860D0049A374950183B
:1040E000002800DC95E00F273740042F05D0311D54
:1040F000B142B641754264190E1CE10105D5304844
:10410000049A8023DF000440D0192E49884224DC21
:10411000019B6507F6086402420501272E43240B24
:10412000520D1F4000200021090D0D052543264C8E
:1041300012052C4014436300301C5E08FF07311C3D
:10414000394307B03CBC90469946A246AB46F0BD09
:104150005A462E1C01920228BAD1019E01273740EF
:10416000134A00240026DDE7544601970398ADE783
:1041700001260027154C76420D4AD3E72E1CA5E7F1
:10418000802213035146194235D10B431D032C0BDA
:10419000074AC7E780214B029B44DBE6019B0022D4
:1041A0001840C7B200240026BCE7C0460DFCFFFF44
:1041B000FF07000001FCFFFF844F0010FF03000019
:1041C000FFFFFFFEFE070000FFFF0F80FFFF0F0055
:1041D000041C283CA5402C1C002570E600F0F4FCD3
:1041E000203060E6283B9E40B24600262DE600F0D7
:1041F000EBFC203019E61C4206D11C432603340B8D
:104200005F462E1C2E4A8DE70B431803040B2C4AE5
:1042100088E72C4F049D7B1B382B06DD019E012770
:1042200037400022002400267CE71F2B21DC049A63
:10423000254F351CD119201C8E40DD408840321C92
:104240002843561EB241061C1643DC400F23334060
:10425000042B05D0371DB742B641714264183E1C8D
:10426000250217D5019B01271F40012200240026AB
:1042700058E71648049A211C871AF9400D1C202B78
:1042800012D0134BD01884402643721E96412E4301
:104290000024DBE7019A6507F60860020127174052
:1042A0002E43040B00223DE70024EDE780210F039D
:1042B0003C43019824030127240B0740004A31E7BF
:1042C000FF07000002FCFFFF1E040000E2FBFFFFEF
:1042D0003E040000F0B557464E464546E0B4071C84
:1042E0000D034E00680ACC0F790F08438446111C59
:1042F00018035A00FD00400ADF0F4B0F1843CA4B4A
:10430000C900760D520D8A469A4200D1E0E00123A1
:104310005F40B946BC4200D1A8E0B71A002F00DCCC
:1043200010E1002A12D15246024300D1D4E0013FED
:10433000002F00D060E151466F1ABD42AD41624688
:104340006B42101A3D1CC31A371C24E0B64A964231
:1043500000D1E3E080210B041843382F00DD23E176
:104360001F2F00DD66E12021C91B021C53468A4035
:10437000FB401A4353468B40191C4B1E9941031CAA
:104380000A43FB40AA1A67469542AD41F81A6B42B0
:10439000C31A151C371C1A0200D4C7E05E02710A4A
:1043A00088464246002A00D1F0E0404600F00CFC6E
:1043B000021C083A1F2A00DDF1E02823181A2E1CDF
:1043C0004146C6409140331C0B439540974200DD67
:1043D000A9E0D01B411C1F2900DD12E11F273A1A5A
:1043E0002E1C181CCE409040954030436A1E9541CB
:1043F000CB400543012100270F262E40042E00D17B
:1044000072E02E1DAE42AD41684280221B1801258C
:10441000100418402C40002807D0834FB94200D127
:10442000B0E0824A0F1C13400131F20849055E07D3
:104430003243DB08480D012800DC79E01B037805D6
:104440001E0B470D00200021090D7D050B05784F3F
:104450001E43101C37406A0817437E007108E407AA
:1044600021431CBC90469946A246F0BDB31A002BCE
:1044700000DCA6E0002A3ED06B4A96424ED0802156
:104480000F043843382B00DC18E15346184300274B
:104490000022002800D001225219AA42AD416744EF
:1044A0006B42FB18151C371C1E023FD55E487E1C54
:1044B000864200D17BE15D4901222A400B40680819
:1044C000151CD90705430D435B08B91C371C93E73E
:1044D000014300D11BE71CE7711C371C0F26634604
:1044E0002E40042E00D08CE7802201261004344098
:1044F00018402E1C8FE752460243EDD0013B002BA3
:1045000009D157467919A94292415542604443194D
:10451000371C0D1CC8E744498E42B3D18020634646
:104520000101371C68E7BF1A404A1340791C63E752
:10453000151C1D4300D121E2002F3ED080263103FF
:104540000B437BE7002F00D086E0721C51054B0D1A
:10455000012B00DCF0E05746EA1B95429B41674681
:10456000391A5B42C91A88460B0200D49DE05446B2
:10457000651BAA459241C01B5742C31B9846371C76
:104580004C460EE70F1C002600225BE7281C00F0BB
:104590001BFB2030021C083A1F2A00DC0DE72838DC
:1045A00085402B1C002511E7574638430023002285
:1045B000002800D1E6E60122E4E61D032E0B0027C9
:1045C00040E7002B00D0D9E0771C79054A0D012A7D
:1045D00000DC95E0144B9F4200D1FEE051464919A2
:1045E000A942AD4162466B428018C2184908D507FE
:1045F0000D435308B11CFFE60B498E4200D0ACE6D8
:104600008CE7061C1F3E1F1CF7403E1C202973D060
:104610003F22101A83401D436B1E9D4135430121EB
:1046200000230027E8E6C046FF070000FFFF7FFFEA
:10463000FFFF0F803B1C203B011CD9400B1C202F8F
:104640005CD04022D71BB840021C50460243511E8A
:104650008A411A43002395E67F42002E40D0CA4C7F
:10466000A24200D11FE1802166460B041E43B446DE
:10467000382F00DDA9E01F2F00DD3DE12023DE1BE8
:10468000291C6446B440F940B5406B1E9D4121434E
:1046900063460D43FB4057467D1BC01AAA459B410C
:1046A0005F42C31B4C46171C75E60D1C154320D1F9
:1046B00000240121002304260027B6E61F2B4ADC34
:1046C0002021C91A071C52468F40DA403A43574608
:1046D0008F40391C4F1EB941D8400A43071CDBE606
:1046E00064462C4369D1511C031C5546171C4C468B
:1046F00082E6151C371C54E600238CE70022A4E751
:1047000067462F43002E00D0D4E0002F00D126E1D1
:104710005346034300D1E4E051464F19AF42AD4147
:1047200060446E4283191E0200D44EE197483D1C3E
:104730000340022101275FE661462943002E29D16B
:10474000002976D151460143B2D0031C55464C4650
:104750000121002750E61F1C203F011CF9400F1CBF
:10476000202B00D1C6E04022D31A9840021C5046AC
:104770000243531E9A413A4300278DE65B42002EC6
:1047800030D167462F4300D0C8E0511C031C55466A
:10479000171C31E6002965D15746074300D1C8E010
:1047A000031C802055464C460101774F24E68023A8
:1047B000371C19010426002337E6013F002F6ED174
:1047C00054466146651B401A68E767463D4300232F
:1047D000002D00D15FE701255DE780263101002330
:1047E000042622E668498A4200D1C1E08027664655
:1047F00039040E43B446382B00DDA2E01F2B00DD48
:10480000D0E02021C91A2E1C67468F408D40DE4023
:104810003E43291C67464D1EA941DF40351C0D4310
:104820003E1C554455459B4130185E428319171C68
:104830003AE65646064354D05746EA1B634695422D
:10484000B641191A7342CB1A1E0200D4A2E07D1B96
:104850006446AA45BF41001B7A42831A4C46012197
:104860000027C9E5564606433FD0624680215707D8
:10487000ED08D3080A033D43134208D0C608164288
:1048800005D15546EC0845072543331C4C46680FB7
:10489000DB0080260343ED0031013B4FACE53A4994
:1048A0008A4200D0E4E68026031C55464C4631017E
:1048B000171CA1E5002F4CD05346034315D0624688
:1048C0008026ED085107D30837030D433B42DED065
:1048D000C2083A42DBD15546E9084507131C0D438F
:1048E000D5E763460121002786E580273901634625
:1048F000254F81E500223AE73C1C203C6646E64015
:10490000331C202F5FD04024E71B6646BE40311C7D
:104910000D43691E8D411D430023BCE6013B002B66
:1049200022D155445545BF417B426044C318171CF2
:10493000BAE58021042200240901154B5642124F8A
:1049400073E563461D430026002D00D169E701256C
:1049500067E78022031C554611010B4F4CE5031CF1
:1049600055460121002747E507498A4200D042E722
:104970008021031C55460901171C3DE57F057F0D6D
:10498000002600225EE5C046FF070000FFFF7FFF14
:10499000FFFF7F001D1C154300D189E6151C012176
:1049A000002729E51F1C203F6146F940202B10D02D
:1049B0004026F31A67469F403B1C1D436B1E9D41DA
:1049C0000D4300262DE70021A2E73D1C0121002711
:1049D00012E50023F1E7C046134A0B0330B5051C6E
:1049E00048001C0BC90F430D0020934211DD0F48F6
:1049F00083420FDC802250030D4A0443D01A1F2843
:104A00000BDD0C4DEB1ADC40221C5042002900D17A
:104A1000101C30BD084C0819FBE7C54007482A1C8C
:104A20001D18AC402243F0E7FE0300001D04000007
:104A30003304000013040000FFFFFF7FEDFBFFFFC6
:104A400070B5041E26D000F0BFF814490A1A0A28CF
:104A500013DD0B38844056052403720D250B002608
:104A600000200021301C0E0D33050D4C2B43110589
:104A70001C400C436500690870BD0B23051C181A07
:104A80001535211CC440A940520525030E1C2D0BD1
:104A9000520DE5E7002200250026E1E71E04000094
:104AA000FFFF0F80410070B50E0E731C4202C50F50
:104AB000D8B2540A012815DD6307E024A000120BC8
:104AC000341800200021181C0B0D1E051C4B32430E
:104AD00061054C08134023435A005608ED07311C6A
:104AE000294370BD002E16D1002C1ED0201C00F0D2
:104AF0006BF80A281DDC0B22111A021C231C15322C
:104B0000CB4094401E1C231C34030E4E220B301A43
:104B100041054C0DD5E7002C03D06307120B0A4C5E
:104B2000CFE7094C00220023CBE70024002200231A
:104B3000C7E7011C0B398C40261C0023E4E7C04664
:104B4000FFFF0F8089030000FF0700008446101C50
:104B500062468C46191C634600E0C0461FB500F053
:104B600003F9002801D40021C8421FBD10B500F090
:104B700049F84042013010BD10B500F0F5F80028AA
:104B800001DB002010BD012010BDC04610B500F0B3
:104B9000EBF8002801DD002010BD012010BDC0464B
:104BA00010B500F06DF8002801DC002010BD0120D8
:104BB00010BDC04610B500F063F8002801DA0020EF
:104BC00010BD012010BDC0461C2101231B049842CA
:104BD00001D3000C10391B0A984201D3000A08398E
:104BE0001B09984201D30009043902A2105C401845
:104BF0007047C046040302020101010100000000E9
:104C000000000000F0B5944647461A03061C580001
:104C100080B4170B420D19480D034C00DB0F2D0B10
:104C2000640DC90F9846844208D0144882420DD0C2
:104C30000120944212D004BC9046F0BD2B1C33439B
:104C40000120002BF7D10D488242F1D163463B434E
:104C50000120002BEFD101209442ECD1BD42EAD1DA
:104C60006645E8D1414506D0002CE4D1281C3043EC
:104C7000451EA841DFE70020DDE7C046FF07000032
:104C8000F0B557464E464546E0B4041C4E000803B6
:104C9000C90F8A46171C59001A03050B700D160B15
:104CA0004A0D3049DB0F9C46884232D02D498A425A
:104CB00035D000280FD1291C21434B424B41984647
:104CC000002A0BD0002B1AD1E2452CD05546002DDE
:104CD00018D1012018E0002AF6D19046311C394342
:104CE0004B424B414146002906D1002BECD05646A1
:104CF0000120002E08D005E00020002B04D16746DB
:104D0000002FE6D1012358421CBC90469946A2468A
:104D1000F0BD2B1C2343C9D002214842F4E7331CC9
:104D20003B43C6D0F8E7904205DC09DA5246002A38
:104D3000E8D00120E8E75446002CE3D10120E3E766
:104D4000B542C3D807D00020B542DDD25046002876
:104D5000D8D00120D8E7BC42B8D80020BC42F5D357
:104D6000D2E7C046FF070000F0B544465F4656460E
:104D70004D46F0B49446061C1A035800170B420D1A
:104D80002E480D034C00DB0F2D0B640DC90F984608
:104D9000844233D02948824236D0002C19D0002AD0
:104DA00020D1934663463B43584258415B46824676
:104DB000002B1DD051460020002904D14246002A74
:104DC00014D1012460423CBC90469946A246AB46B1
:104DD000F0BD2B1C3343584243419B46002AE1D08F
:104DE000002BEBD1414515D00029EAD10120EAE79B
:104DF0000028F7D001200029E5D0E2E72B1C33433F
:104E00000220002BDFD1C5E763463B430220002B85
:104E1000D9D1C2E79442E7DC05DBBD42E4D806D035
:104E20000020BD42CFD20029CBD00120CBE7664580
:104E3000DAD800206645F6D3C5E7C046FF07000074
:104E4000D8C1FF7F0100000000C2FF7F0100000009
:104E5000000000480001044005000000000104407B
:104E6000040000000000000000C201000700010172
:104E70001F010505010100002B03150009000600B4
:104E800000000000090300000101000000010440CF
:104E9000010000000001044000000050010000007B
:104EA0000000044800000000020000000000034869
:104EB000A009002000000000000000000000000029
:104EC00000000100C42D00106E2E0010162F0010DF
:104ED000D62E0010162F0010CE2E0010162F001008
:104EE000D62E00106E2E00106E2E0010CE2E00104A
:104EF000D62E0010342F0010342F0010342F001045
:104F00001C2F0010A0310010E2320010E23200101D
:104F1000DA320010C8320010C8320010C03200105F
:104F2000DA320010C8320010C0320010C83200104F
:104F3000DA3200106C3200106C3200106C3200104B
:104F4000E63200104C390010183B00100C3C0010E9
:104F5000A83B00100C3C0010823B00100C3C0010E1
:104F6000A83B0010183B0010183B0010823B0010BB
:104F7000A83B00102E3C00102E3C00102E3C0010D0
:104F8000143C0010203F00107C4100107C410010B8
:104F900050410010C8400010C8400010704100107F
:104FA00050410010C840001070410010C84000106F
:104FB0005041001068410010684100106841001025
:044FC000804100101C
:104FD0002C48874600000000000000000000000090
:104FE00000000000000000000000000000000000C1
:104FF000254887460000000000000000234887463F
:1050000023488746234887462348874623488746C0
:1050100023488746234887462348874623488746B0
:1050200023488746000000002248874622488746DA
:105030002248874622488746224887462248874694
:105040002248874622488746224887462248874684
:105050002248874622488746224887462248874674
:105060002248874622488746224887462248874664
:1050700022488746224887460000000000000000C2
:1050800020488746D7100010D9100010DB10001000
:10509000DD100010DF100010E1100010E310001010
:1050A000E5100010E7100010E9100010EB100010E0
:1050B000ED1000100B1100100D1100100F11001059
:1050C000111100101311001015110010EF10001035
:1050D000F1100010F3100010CD120010F7100010A6
:1050E0007D13001061150010B51A0010951A0010FC
:1050F000011100100311001005110010071100101C
:08510000091100101711001045
:105108000050C346CDCCCC3D01000000010000009A
:10511800504E0010844E0010984E0010A04E001003
:0400000510001019BE
:00000001FF
