:020000041000EA
:101000005009002019100010D5100010D710001042
:1010100000040000000000000248854602488047A6
:1010200012E0000050090020D1100010002A0AD060
:10103000042A00D20422920803680B60013A02D00D
:1010400004300431F8E7704711481249124AFFF79B
:10105000EDFF12481249134AFFF7E8FF12481349FF
:10106000134AFFF7E3FF13481349002906D0890804
:1010700000220260013901D00430FAE70F488546AA
:101080000F4880470F488047002000210E4A9746AE
:1010900068660010A00900201C0000008466001093
:1010A000BC09002000000000306500100C0000208A
:1010B00038010000500900204C00000050090020B9
:1010C00019110010CD10001045200010C0467047C7
:1010D000C0467047FEE7FEE7FEE7FEE7FEE7FEE7F5
:1010E000FEE7FEE7FEE7FEE7FEE7FEE7FEE7FEE7D8
:1010F000FEE7FEE7FEE7FEE7FEE7FEE7FEE7FEE7C8
:10110000FEE7FEE7FEE7FEE7FEE7FEE7FEE7FEE7B7
:10111000FEE7FEE7FEE7FEE780B500AF00F002F86D
:10112000BD4680BD80B582B000AF114B1A68FF2369
:101130001B0213401B0A7B600D4B1A68FF231340F0
:101140003B607B68002B0CD07B681A023B68D3188D
:101150000848191C03F014F8031C5A00064B1A60C7
:1011600002E0054B054A1A60BD4602B080BDC0468C
:1011700000030140000024F4980900200048E80121
:1011800080B582B000AF021CFB1D1A70064BFA1D21
:101190001278111C1F220A400121081C9040021CD9
:1011A0001A60BD4602B080BD00E100E0B0B582B07B
:1011B00000AF021C3960FB1D1A70FB1D1B787F2BD2
:1011C00032D93049FB1D1B781A1C0F231340083BF2
:1011D00098082C4AFB1D1B781C1C0F232340083B3E
:1011E0009B0806339B00D3185B68FA1D1278141C09
:1011F00003222240D200FF24251C95402A1CD24302
:101200001A403B689C01FF231C40FB1D1B781D1CE2
:1012100003232B40DB00251C9D402B1C1A43831D00
:101220009B00CB185A6029E0174BFA1D127852B276
:1012300092081549F81D007840B28008C03080003F
:101240004158F81D0078041C03202040C000FF24F2
:10125000251C8540281CC043084039688C01FF21AB
:101260000C40F91D09780D1C03212940C900251CDB
:101270008D40291C0143C0329200D150BD4602B0BE
:10128000B0BDC04600ED00E000E100E080B500AF79
:101290008F4A8F498023CB58832119438023D15013
:1012A0008C4A8C498023CB58832119438023D15009
:1012B000894A89498023CB58802109061943802314
:1012C000D150854A84498023CB588021090619438F
:1012D0008023D150C0467E4A8023D25880235B05AC
:1012E0001340F8D17B4A8023D25880235B051340FA
:1012F000F1D1774A76498823CB58072119438823AF
:10130000D150744A73498823CB580221194388234A
:10131000D1506F4A6E4980239B00CB586F491943C7
:1013200080239B00D1506A4A694981239B00CB5896
:101330006A49194381239B00D150654A644982233D
:101340009B00CB586549194382239B00D150604ACA
:101350005F49A0239B00CB58802109061943A02395
:101360009B00D1505B4A5B4981239B00CB580121F4
:10137000194381239B00D150564A564981239B0033
:10138000CB5880214902194381239B00D150514AF7
:101390005049A1239B00CB58802109061943A12362
:1013A0009B00D1504A4A4A4990235B00CB58C82140
:1013B0000902194390235B00D150464A45499023C6
:1013C0005B00CB58C8210902194390235B00D15020
:1013D0003F4A3F4992235B00CB5805211943922392
:1013E0005B00D1503B4A3B4992235B00CB5805211F
:1013F000194392235B00D150354A94235B000421AA
:10140000D150344A94235B000221D150304A3049F4
:101410008423CB588021890419438423D1502D4A39
:101420002C498423CB588021890419438423D1502B
:10143000274A2749E4235B00CB5802211943E423C0
:101440005B00D150224A2249D8235B00CB580121AE
:101450001943D8235B00D15012200021FFF7A6FECC
:101460001220FFF78DFE1B4A1A49E4235B00CB587C
:1014700002211943E4235B00D150164A1549D823B1
:101480005B00CB5810211943D8235B00D1501420A6
:101490000221FFF78BFE1420FFF772FE104B104A5B
:1014A000126E40218A431A660D4B0D4A116E0D4A89
:1014B0000A401A660A4B0A4A116E0B4A0A401A661B
:1014C000074B074A126E80218A431A66BD4680BDCB
:1014D00000040348000803480000034841030000DB
:1014E00000020440FFFEFFFFFFFDFFFF80B500AFDD
:1014F000234AC0239B00D358002B3EDA00F04EFB5A
:10150000031C1A1C01231340DBB2002B09D11C4A17
:10151000C0239B00D3589AB21A4B1B889BB29A42A5
:1015200012D300F03BFB031C1A1C01231340DBB257
:10153000002B22D0124AC0239B00D3589AB2114BE1
:101540001B889BB29A4218D90F4B0F4A126902218D
:101550000A431A610D4A0D49A423CB581021181CC7
:101560008843011CA423D150094B5B68084A527878
:101570000849081C9040021C5A60BD4680BDC04608
:1015800000040348500900200001044800040050F2
:10159000EC6300100100010080B500AF074AC123D1
:1015A0009B00D358002B06DA044AC1239B00D35872
:1015B0009AB2034B1A80BD4680BDC046000803485E
:1015C0005009002080B582B000AF021CFB1D1A70CC
:1015D000064BFA1D1278111C1F220A400121081C1B
:1015E0009040021C1A60BD4602B080BD00E100E0E0
:1015F000B0B582B000AF021C3960FB1D1A70FB1D34
:101600001B787F2B32D93049FB1D1B781A1C0F2306
:101610001340083B98082C4AFB1D1B781C1C0F2309
:101620002340083B9B0806339B00D3185B68FA1DD8
:101630001278141C03222240D200FF24251C95405E
:101640002A1CD2431A403B689C01FF231C40FB1D0F
:101650001B781D1C03232B40DB00251C9D402B1CED
:101660001A43831D9B00CB185A6029E0174BFA1DC3
:10167000127852B292081549F81D007840B28008DD
:10168000C03080004158F81D0078041C0320204021
:10169000C000FF24251C8540281CC0430840396831
:1016A0008C01FF210C40F91D09780D1C03212940F4
:1016B000C900251C8D40291C0143C0329200D15025
:1016C000BD4602B0B0BDC04600ED00E000E100E064
:1016D00098B500AF904B1B68181C04F089FC031CE4
:1016E0000C1C181C211C894B874A03F059FE031C53
:1016F0000C1C874887491A1C231C03F075FB031C2C
:101700000C1C181C211C02F0DFFD031C5A1E834B0D
:101710001A60824B1B68181C03F012FB021C804BE2
:101720001B68101C191C02F0E1FF031C181C02F0BE
:10173000B1FD021C7B4B1A607B4B7C497C487D4C85
:10174000764A1268626342634A635A63764B754A0B
:101750001268DA63744B714A126801325A64734B2F
:101760000022DA63714B00225A64714B0022DA6363
:101770006F4B6A4A126801325A646E4B694A1268AA
:10178000013ADA636B4B674A1268013A5A64A02344
:10179000DB05A022D205126967490A431A61624B30
:1017A000614A126865490A431A605F4B5E4A526893
:1017B00001210A435A605D4B5C4A12685F490A4343
:1017C0001A605A4B594A526801210A435A60584BD1
:1017D000574A126859490A431A60554B544A52688D
:1017E00001210A435A60534B524A126853490A4333
:1017F0001A60504B4F4A526801210A435A60A02395
:10180000DB05A022D205D2680F210A43DA60464BDD
:10181000454A926C1E210A439A64444B434A926C97
:101820001E210A439A64424B414A926C1E210A438C
:101830009A64434B424A1269A8210A431A61404BF9
:101840003F4A1269A82109060A431A613C4B3C4AE7
:101850005269A82109060A435A61394B384A52692C
:10186000A8210A435A61364B00229A61344B344A0C
:101870009269A8210A439A61314B314A9269A821A1
:1018800009060A439A612F4B2E4A526A08210A43DD
:101890005A622C4B2C4A5A632A4B0022DA632B4B98
:1018A0002A4A126901210A431A61264A2549A423BA
:1018B000CB5804211943A423D15015200021FFF750
:1018C00097FE1520FFF77EFE204B204AD2680121AB
:1018D0000A43DA60174A1749A823CB582021194335
:1018E000A823D150134A1349A823CB5804211943E4
:1018F000A823D1500F4A0F49A423CB5804211943E0
:10190000A423D150BD4698BD0000000000403F40D8
:101910000000000065CDCD41A00900205409002041
:10192000A4090020580900200001005000020050C6
:1019300000030050000400501111000007000100D6
:101940000000044000010448FFFF000000000448BC
:1019500080B500AF854B1B78DBB2002B00D1FFE0D8
:10196000834B1B78DBB20133DAB2814B1A70804BA8
:101970001B78DBB25BB2052B02DD7D4B00221A70B7
:101980007B4B1B78DBB25BB2052B00D9B2E09A002F
:10199000784BD3181B689F46774A94235B00042139
:1019A000D150764B764A1268DA63744B754A1268E6
:1019B00001325A64744B0022DA63734B00225A647A
:1019C000724B0022DA63714B6E4A126801325A641C
:1019D00090E0694A94235B000221D150674B684A2A
:1019E0001268DA63654B674A126801325A64664BC3
:1019F0000022DA63644B634A126801325A64634B13
:101A00000022DA63614B00225A6473E05A4A94233D
:101A10005B000121D150594B0022DA63574B594AE0
:101A2000126801325A64584B554A1268DA63564BB1
:101A3000544A126801325A64544B0022DA63534B01
:101A400000225A6456E04C4A94235B000421D15092
:101A50004A4B0022DA63494B00225A644A4B484AF7
:101A60001268DA63484B474A126801325A64474B9E
:101A70000022DA63454B434A126801325A6439E066
:101A80003D4A94235B000221D1503C4B0022DA6393
:101A90003A4B00225A643C4B0022DA633A4B394AF3
:101AA000126801325A64394B354A1268DA63374B8F
:101AB000344A126801325A641CE02F4A94235B00B6
:101AC0000121D1502D4B0022DA632C4B2D4A126894
:101AD00001325A642C4B0022DA632B4B00225A64E9
:101AE0002A4B274A1268DA63284B264A12680132C9
:101AF0005A64C046264B224A1268013ADA63244BE4
:101B00001F4A1268013A5A64A023DB05A022D205BD
:101B1000126920490A431A61C046A023DB059A696D
:101B20001C4B1340F9D11A4A1949A423CB58102150
:101B30001943A423D1500D4B1B78DBB2012B12D1DA
:101B4000154B1B8801339AB2134B1A80124B1A881B
:101B5000B4239B009A4206D9044B02221A7002E079
:101B6000024B01221A70BD4680BDC0465D090020AF
:101B70005C0900209C630010000403480001005031
:101B800058090020540900200002005000030050B2
:101B900000040050111100005E09002080B500AF64
:101BA000034B1B78DBB2DBB2181CBD4680BDC046C0
:101BB0005C09002080B500AF0C4B1B78DBB2002B1A
:101BC00012D10B4B0A4A126B802149000A431A6357
:101BD000074B074A116B074A0A401A63064B064A2D
:101BE000D26801210A43DA60BD4680BD5D0900204C
:101BF00000000140FFFEFFFF0001044880B500AF78
:101C00001D4B1B78DBB2002B33D01C4B1B68181C00
:101C100003F096F8021C1A4B1B68101C191C02F0EA
:101C200065FD031C181C02F035FB021C154B1A60E5
:101C3000154B154A126903210A431A61134B134AC3
:101C4000126903210A431A61114B114A12690321D7
:101C50000A431A610F4B0F4A126903210A431A61A2
:101C60000D4B0D4A126903210A431A61024B0022EF
:101C70001A70BD4680BDC0465D0900205409002091
:101C8000A409002058090020000104480001005068
:101C900000020050000300500004005080B582B0E4
:101CA00000AF021CBB1D1A80FFF784FF074B1B7897
:101CB000DBB2022B05D1BB1D1A88054B1A6001232C
:101CC00000E00023181CBD4602B080BD5D09002065
:101CD0005809002080B582B000AF021CFB1D1A70AD
:101CE000064BFA1D1278111C1F220A400121081C04
:101CF0009040021C1A60BD4602B080BD00E100E0C9
:101D0000B0B582B000AF021C3960FB1D1A70FB1D1C
:101D10001B787F2B32D93049FB1D1B781A1C0F23EF
:101D20001340083B98082C4AFB1D1B781C1C0F23F2
:101D30002340083B9B0806339B00D3185B68FA1DC1
:101D40001278141C03222240D200FF24251C954047
:101D50002A1CD2431A403B689C01FF231C40FB1DF8
:101D60001B781D1C03232B40DB00251C9D402B1CD6
:101D70001A43831D9B00CB185A6029E0174BFA1DAC
:101D8000127852B292081549F81D007840B28008C6
:101D9000C03080004158F81D0078041C032020400A
:101DA000C000FF24251C8540281CC043084039681A
:101DB0008C01FF210C40F91D09780D1C03212940DD
:101DC000C900251C8D40291C0143C0329200D1500E
:101DD000BD4602B0B0BDC04600ED00E000E100E04D
:101DE00080B584B000AF3B1C0F3300221A70002373
:101DF000BB6000237B605E4B1B78002B01D0FFF79C
:101E0000FDFE5C4B1A688A235B00D258FE23DB037D
:101E100013401B0C0C2B00D8A6E0564A564B101C46
:101E2000191C0D2200F0FCFE534B1B7B042B16D01B
:101E3000524B5B68514A52785149081C9040021C31
:101E40005A604C4B1A684B4B19688C235B00CB587B
:101E50008021C90119438C235B00D15084E0FB1C15
:101E6000454A12781A70444B5B781B029AB2424B77
:101E70009B7813439AB23B1C1A80FB1C1B78222BC5
:101E80000BD010DC0A2B02D00B2B03D00BE0FFF79A
:101E900091FE08E0FFF7B2FE05E03B1C1B88181C12
:101EA000FFF7FCFEC0463B1C0F3303221A7011E003
:101EB0003B1C0F331B78033B3A1C0F3212782E4920
:101EC000895C304AD1543B1C0F333A1C0F321278D4
:101ED00001321A703B1C0F331B780B2BE8D93B1CCB
:101EE0000F331B78033BBA68D1B2264AD1543B1C4E
:101EF0000F333A1C0F32127801321A703B1C0F3329
:101F00001B78033B7A68120AD1B21E4AD1543B1C9B
:101F10000F333A1C0F32127801321A703B1C0F3308
:101F20001B78033B7A68D1B2164AD1543B1C0F335D
:101F30003A1C0F32127801321A703B1C0F331B7897
:101F4000033B104A0421D1540A4A0E4B101C191CA1
:101F50000D2200F0DFFE064B00221A700A4B1B78A0
:101F60000133DAB2084B1A70BD4604B080BDC046DA
:101F7000A8090020B463001060090020F463001079
:101F800001000100700900207D09002080B500AF2C
:101F90001B4B1B4A526A03210A435A62184B194AC7
:101FA0005A63174B0022DA63174B174A1269102144
:101FB0000A431A61124A1249A423CB580421194337
:101FC000A423D1500E4A0E49A823CB58042119430B
:101FD000A823D15016200121FFF792FE1620FFF70B
:101FE00079FE094B084AD26802210A43DA60044BA1
:101FF000034AD26801210A43DA60BD4680BDC0466B
:1020000000020448FFFF00000000044880B500AF54
:10201000094B1A78094B1B789A4203D1084B0122CD
:102020001A7002E0064B00221A70044B1A78024B19
:102030001A70BD4680BDC0467E0900207D09002083
:10204000A809002080B500AF01F0C4F9FFF740FBFC
:10205000FFF71CF9FFF79AFFFFF7C2FEFCE7C04647
:1020600080B584B000AFF860B9607A6001235B424C
:10207000181CBD4604B080BD80B584B000AFF860C8
:10208000B9607A6001235B42181CBD4604B080BD74
:1020900080B584B000AFF860B9607A600023181C86
:1020A000BD4604B080BDC04680B584B000AFF860C6
:1020B000B9607A6001235B42181CBD4604B080BD44
:1020C00080B500AF01235B42181CBD4680BDC046F1
:1020D00080B582B000AF786039603B68002B02D0D9
:1020E00001235B4201E002235B42181CBD4602B0A3
:1020F00080BDC04680B582B000AF786039607A6834
:102100003B689A4202D101235B4201E002235B4219
:10211000181CBD4602B080BD80B582B000AF7860AB
:1021200001235B42181CBD4602B080BD80B586B05D
:1021300000AF7860144B7B61144B1B68002B08D1F7
:10214000124B134A1A60114B1A687B69D218114B53
:102150001A600E4B1B683B610C4B1B681A1C7B689A
:10216000D318073307229343FB600A4B1B68FA68B6
:102170009A4201D3002303E0044BFA681A603B69DA
:10218000181CBD4606B080BD403600008409002002
:10219000C00900208809002080B582B000AF7860B7
:1021A00001235B42181CBD4602B080BD80B582B0E1
:1021B00000AF786001235B42181CBD4602B080BDB1
:1021C00080B582B000AF7860396001235B42181C93
:1021D000BD4602B080BDC04680B500AF01235B4262
:1021E000181CBD4680BDC04680B500AF01235B42D0
:1021F000181CBD4680BDC04680B582B000AF786077
:10220000FEE7C04680B500AFBD4680BD80B582B058
:1022100000AF786001235B42181CBD4602B080BD50
:1022200080B584B000AF78607B681B68FB60FB689A
:102230001B6C0222191C91430A1CFB681A64FB6880
:10224000DB6803221A43FB68DA60FB681B698022A3
:1022500012021A43FB681A61FB681A697B681B8DBE
:102260009B059B0D1A43FB681A61FB685A697968E4
:102270003023CB5C1902C0239B0019407B689B8DE7
:102280009802F823DB01034019437B685B8D180437
:102290004F4B03400B431A43FB685A61FB685B6B6F
:1022A000812252001A43FB685A63FB685A6B7B68B1
:1022B0009B8B1904FC239B0319407B689B8B18069E
:1022C000F0231B0503400B431A43FB685A63FB686A
:1022D0009B6BA022D2001A43FB689A63FB68DA6BFF
:1022E0007B685B7D5900022319407B68DB8D1802F7
:1022F000F8235B0103400B43134301221A43FB689D
:10230000DA637A682423D35C002B05D0FB68DB6B8F
:1023100020221A43FB68DA637A682523D35C002BFA
:1023200005D0FB68DB6B40221A43FB68DA637A68EE
:102330002623D35C002B05D0FB68DB6B80221A437D
:10234000FB68DA637B689B7F002B11D0FA688423DB
:102350005B00D25879682023CB5C1902FC239B01D7
:102360000B40111C1943FA6884235B00D15006E02E
:10237000FB689B6C802292011A43FB689A647B681D
:10238000DB7F002B13D0FA6886235B00D258796874
:102390002123CB5C1902FC239B010B4013438022B9
:1023A0005205111C1943FA6886235B00D150FB6863
:1023B0001A6C7B689B7D1902C0239B000B40134362
:1023C00002221A43FB681A64BD4604B080BDC046B1
:1023D0000000FF0390B585B000AF78607B685B6854
:1023E0007A68526851687A68127A0120041C944015
:1023F000221C0A435A607B681B7AFB60FB68032B34
:102400000ED87B685B687A6852681169FA68D200F6
:1024100003321820041C9440221C0A431A6146E02F
:10242000FB68032B14D9FB68072B11D8FB68043B0E
:10243000FB607B685B687A6852685169FA68D20011
:1024400003321820041C9440221C0A435A612EE0D7
:10245000FB68072B14D9FB680B2B11D8FB68083BD2
:10246000FB607B685B687A6852689169FA68D200A1
:1024700003321820041C9440221C0A439A6116E07F
:10248000FB680B2B13D9FB680F2B10D8FB680C3B98
:10249000FB607B685B687A685268D169FA68D20031
:1024A00003321820041C9440221C0A43DA61BD4602
:1024B00005B090BD80B584B000AF78607868002129
:1024C00001F0C0FE031C002B05D07B6880221206A1
:1024D0005340FB6001E07B68FB60FB68181CBD4655
:1024E00004B080BDB0B5AEB000AFF860B9607A603E
:1024F0000023B420C01903600023B021C9190B6068
:10250000FB68AC22D21913600023A820C019036015
:1025100000238821C9190B600023FB67E04BA82228
:10252000D2191360AC23DB19186802F009FC041CF3
:10253000A821C919086802F003FC031C201C191CFF
:1025400001F0E2FE031CBB67B86FFE21890501F0B4
:102550008DFE031C002B17D08023DB00A422D21990
:1025600013603B1C833301221A70AC20C01903682E
:10257000FB67A821C9190B68AC22D2191360FB6F45
:10258000A820C019036008E03B1C833300221A70A6
:102590008023DB00A421C9190B6000238422D219F7
:1025A000136000239020C019036000238C21C919F7
:1025B0000B603B1C6033AC20C01902681A603B1CE6
:1025C0004033A821C9190A681A603B1C3033012224
:1025D0001A603B1C203300221A608422D21913682F
:1025E00001338420C01903608C21C9190B687B67F3
:1025F0009022D21913688C20C01903608421C91954
:102600000A68032313409022D21913603B1C6033E5
:102610008C20C01902689200D1583B1C5033902086
:10262000C01902689200D1503B1C40338C21C9195B
:102630000A689200D1583B1C60339020C019026890
:102640009200D1503B1C50339021C9190A68920066
:10265000D2583B1C60339020C01901688900CB58C8
:10266000101C191C01F08CFD031C191C3B1C1033A1
:102670009020C01902689200D1503B1C5033902129
:10268000C9190A689200D2583B1C60339020C019C7
:1026900001688900CB58101C191C01F0B5FD0B1CFA
:1026A000191C3B1C40339020C01902689200D15085
:1026B0008421C9190B68012B0AD13B1C10335A68BD
:1026C0003B1C30335A603B1C203301225A6037E0F8
:1026D0003B1C10339020C01902689200D3583A1C5A
:1026E00030328C20C019016889008A585A433B1C3B
:1026F0003033796F8900CB58D1183B1C3033902090
:10270000C01902689200D1503B1C10339021C919A6
:102710000A689200D3583A1C20328C20C0190168F4
:1027200089008A585A433B1C2033796F8900CB5863
:10273000D1183B1C20339020C01902689200D15060
:102740003B1C20339021C9190A689200D258A4205A
:10275000C01903689A4200D8FDE03B1C30338C213D
:10276000C9190A689200D358A022D21913603B1CE1
:1027700020338C20C01902689200D3589821C919BF
:102780000B603B1C20337A6F9200D358A420C019F1
:102790000268D21A3B1C20338C20C01901688900C2
:1027A000CB58101C191C01F0EBFC031C3B6790215B
:1027B000C9190B685A1E3B1C30339200D3583A6F2C
:1027C0005A439020C0190368991E3B1C303389007E
:1027D000CB58D3189C21C9190B609022D2191368C9
:1027E0005A1E3B1C20339200D3583A6F5A433B1C6D
:1027F0002033796F8900CB58D3189420C019036017
:102800003B1C83331B78002B1BD0A021C9190B68FC
:10281000FB679822D2191368A020C0190360FB6FD0
:102820009821C9190B609C22D2191368FB67942068
:10283000C01903689C21C9190B60FB6F9422D2193F
:1028400013609820C0190368002B04D0A021C91977
:102850000B68002B0CD19C22D2191368B420C0192C
:1028600003609421C9190B68B022D21913606DE07E
:102870009420C0190368002B04D09C21C9190B684F
:10288000002B0FD1A022D2191368B420C019036005
:102890009821C9190B68B022D219136056E0C046BE
:1028A000350C0000A023DB19186802F049FA041C5B
:1028B0009821C919086802F043FA031C201C191C4E
:1028C00001F022FD031CB86F191C02F03FF8031C35
:1028D000181CFFF7EFFD041C9C22D219106802F0AF
:1028E0002FFA051C9423DB19186802F029FA031C3F
:1028F000281C191C01F008FD031CB86F191C02F0FC
:1029000025F8031C181CFFF7D5FD031C201C191CFF
:1029100001F0ACFC031C002B0CD09C20C0190368F8
:10292000B421C9190B609422D2191368B020C019C0
:1029300003600BE0A021C9190B68B422D2191360FF
:102940009820C0190368B021C9190B60052388229B
:10295000D219136033E03B1C40339020C019026849
:102960009200D358002B2AD13B1C30339021C91937
:102970000A689200D358B422D21913603B1C20334A
:102980009020C01902689200D358B021C9190B6079
:102990003B1C83331B78002B0DD0B422D219136853
:1029A000FB67B020C0190368B421C9190B60FB6F25
:1029B000B022D219136005238820C0190360882132
:1029C000C9190B68052B00D007E6B423DB191A6878
:1029D0000A4B9A4203D9094BB420C01903607B68A3
:1029E000B421C9190A681A60B022D21913685A1E94
:1029F000BB681A60BD462EB0B0BDC046FF030000E4
:102A000080B582B000AF1D4BC0225A621C4B1C4ADD
:102A100012681C490A431A60194B194A12690821A5
:102A20000A431A61C046164B1A688023DB0513401F
:102A3000F9D1124BC3225A6200237B6017E0124B7C
:102A40007A689200D3581B7D012B06D10E4B7A6811
:102A50009200D358181CFFF7BDFC0B4B7A6892000C
:102A6000D358181CFFF7DCFB7B6801337B607B6865
:102A7000002BE4D0BD4602B080BDC046000001403E
:102A8000000301400000F03FAC09002080B582B097
:102A900000AF7860BD4602B080BDC04680B58AB048
:102AA00000AFF860B960111C1A1CFB1D1970BB1D2A
:102AB0001A7000237B6100233B61FB681B683B624B
:102AC00005237B623B6A9A6C01231340FB613B6ADE
:102AD0009A6C022313405B08BB61FB69BA6913401F
:102AE000012B56D13B6A1B6C0222191C91430A1C14
:102AF0003B6A1A64B9683A1C14323B1C1033081C38
:102B0000111C1A1CFFF7EEFC3B6A1B699B0A9A0218
:102B10003B6A1A613B6A1A693B699B059B0D1A4324
:102B20003B6A1A613B6A5A691D4B1A403B6A5A61FB
:102B30003B6A5A697B6919041A4B0B401A433B6A7A
:102B40005A613B6ADB6B0222191C91430A1C3B6AE7
:102B5000DA633B6ADA6BBB1D1B78590002230B401A
:102B60001A433B6ADA633B6A1A6C0F4B1A403B6AA2
:102B70001A643B6A1A6CFB1D1B781902C0239B0068
:102B80000B40134302221A433B6A1A6400237B6200
:102B900001E003237B627B6A181CBD460AB080BD3E
:102BA000FFFF00FC0000FF03FFFCFFFF80B586B0C5
:102BB00000AFF860B9607A6000237B61FB681B6836
:102BC0003B61FB68DB7F002B1CD00FE03A698E2352
:102BD0005B00D3589AB2BB681A807B68013B7B606C
:102BE0007B6901337B61BB680233BB603A698A232E
:102BF0005B00D25808231340DB080BD17B68002B05
:102C0000E4D107E03B695B6D9AB2BB681A807B69CF
:102C100001337B617B69181CBD4606B080BDC04690
:102C200080B586B000AFF860B9607A6000237B6140
:102C3000FB681B683B61FB68DB7F002B1CD00FE04F
:102C40003A698E235B00D358DAB2BB681A707B688E
:102C5000013B7B607B6901337B61BB680133BB60F7
:102C60003A698A235B00D25808231340DB080BD152
:102C70007B68002BE4D107E03B695B6DDAB2BB688F
:102C80001A707B6901337B617B69181CBD4606B0F5
:102C900080BDC04680B586B000AFF860B9607A608C
:102CA00000237B61FB681B683B61FB689B7F002BFB
:102CB0001DD00FE0BB681B88191C3A69C0235B005C
:102CC000D1507B68013B7B607B6901337B61BB68D2
:102CD0000233BB603A698A235B00D25880235B01D0
:102CE00013401B0B11D17B68002BE3D10DE03B6936
:102CF0009A6B8023134008D1BB681B88191C3A6962
:102D00008023D1507B6901337B617B69181CBD46F0
:102D100006B080BD80B586B000AFF860B9607A605B
:102D200000237B61FB681B683B61FB689B7F002B7A
:102D30001DD00FE0BB681B78191C3A69C0235B00EB
:102D4000D1507B68013B7B607B6901337B61BB6851
:102D50000133BB603A698A235B00D25880235B0150
:102D600013401B0B11D17B68002BE3D10DE03B69B5
:102D70009A6B8023134008D1BB681B78191C3A69F1
:102D80008023D1507B6901337B617B69181CBD4670
:102D900006B080BD80B586B000AF78600A1CFB1C11
:102DA0001A7001237B6100233B617B681B68FB6019
:102DB000FB1C1B780F2B0AD8FB689B6C3B61FB1C30
:102DC0001B7801229A403B6913403B611EE0FB1CCB
:102DD0001B78122B0DD8FA688A235B00D3583B610D
:102DE000FB1C1B78103B01229A403B6913403B615E
:102DF0000CE0FA688A235B00D3583B61FB1C1B780C
:102E00000B3B01229A403B6913403B613B69002B1D
:102E100001D002237B617B69181CBD4606B080BDD2
:102E200080B584B000AF78600A1CFB1C1A707B6808
:102E30001B68FB60FB1C1B780F2B0BD8FB68DA6C44
:102E4000FB1C1B780121081C9840031C1A43FB68DB
:102E5000DA6426E0FB1C1B78122B11D8FA688C234D
:102E60005B00D258FB1C1B78103B0121081C9840CA
:102E7000031C111C1943FA688C235B00D15010E02D
:102E8000FA688C235B00D258FB1C1B780B3B01219A
:102E9000081C9840031C111C1943FA688C235B0022
:102EA000D150BD4604B080BD80B582B000AF021CD9
:102EB000FB1D1A70064BFA1D1278111C1F220A40C6
:102EC0000121081C9040021C1A60BD4602B080BD62
:102ED00000E100E0B0B582B000AF021C3960FB1D1C
:102EE0001A70FB1D1B787F2B32D93049FB1D1B78D4
:102EF0001A1C0F231340083B98082C4AFB1D1B7813
:102F00001C1C0F232340083B9B0806339B00D3184F
:102F10005B68FA1D1278141C03222240D200FF24A1
:102F2000251C95402A1CD2431A403B689C01FF2374
:102F30001C40FB1D1B781D1C03232B40DB00251CA4
:102F40009D402B1C1A43831D9B00CB185A6029E01F
:102F5000174BFA1D127852B292081549F81D0078E5
:102F600040B28008C03080004158F81D0078041C31
:102F700003202040C000FF24251C8540281CC0439E
:102F8000084039688C01FF210C40F91D09780D1C9F
:102F900003212940C900251C8D40291C0143C03252
:102FA0009200D150BD4602B0B0BDC04600ED00E079
:102FB00000E100E080B582B000AF78607B681B78EC
:102FC000DBB25BB2181CFFF76FFFBD4602B080BDDD
:102FD00080B582B000AF00237B6009E0074B7A68C0
:102FE0009200D358181C00F00BF87B6801337B600B
:102FF0007B68002BF2D0BD4602B080BDB009002036
:1030000080B582B000AF78607B681B78DAB27B68ED
:103010005B7852B2101C191CFFF75CFF7B68DB78F1
:10302000012B03D17B68181CFFF7C4FFBD4602B01B
:1030300080BDC04680B500AF0A4B5B6800225A6075
:10304000084B5B68074A526812691A61064B5B6855
:1030500000225A60044B5B68034A526812691A6185
:10306000BD4680BDEC630010F463001090B585B0E0
:1030700000AF78600A1CFB1C1A703B1C0F337A6887
:1030800052781A703B1C0F331B78032B24D87B68B3
:103090005B687A6852681269391C0F310978C90077
:1030A00003311F20041C8C40211CC9430A401A61B3
:1030B0007B685B687A6852681169FA1C10781F2275
:1030C00010403A1C0F321278D2000332041C944094
:1030D000221C0A431A61A0E03B1C0F331B78032B10
:1030E00030D93B1C0F331B78072B2BD83B1C0F33DD
:1030F0003A1C0F321278043A1A707B685B687A685F
:1031000052685269391C0F310978C90003311F20F8
:10311000041C8C40211CC9430A405A617B685B68CF
:103120007A6852685169FA1C10781F2210403A1CC4
:103130000F321278D2000332041C9440221C0A433E
:103140005A616AE03B1C0F331B78072B30D93B1CBC
:103150000F331B780B2B2BD83B1C0F333A1C0F3231
:103160001278083A1A707B685B687A6852689269CC
:10317000391C0F310978C90003311F20041C8C4011
:10318000211CC9430A409A617B685B687A6852686F
:103190009169FA1C10781F2210403A1C0F321278E5
:1031A000D2000332041C9440221C0A439A6134E08A
:1031B0003B1C0F331B780B2B2FD93B1C0F331B7879
:1031C0000F2B2AD83B1C0F333A1C0F3212780C3AC3
:1031D0001A707B685B687A685268D269391C0F3153
:1031E0000978C90003311F20041C8C40211CC943ED
:1031F0000A40DA617B685B687A685268D169FA1CB8
:1032000010781F2210403A1C0F321278D20003327D
:10321000041C9440221C0A43DA61BD4605B090BDEF
:1032200090B585B000AF78600A1CFB1C1A703B1C7F
:103230000F337A6852781A703B1C0F331B78032BBC
:1032400024D87B685B687A6852681269391C0F3130
:103250000978C90003311F20041C8C40211CC9437C
:103260000A401A617B685B687A6852681169FA1CC7
:1032700010781F2210403A1C0F321278D20003320D
:10328000041C9440221C0A431A61A0E03B1C0F332B
:103290001B78032B30D93B1C0F331B78072B2BD803
:1032A0003B1C0F333A1C0F321278043A1A707B68B9
:1032B0005B687A6852685269391C0F310978C90015
:1032C00003311F20041C8C40211CC9430A405A6151
:1032D0007B685B687A6852685169FA1C10781F2213
:1032E00010403A1C0F321278D2000332041C944072
:1032F000221C0A435A616AE03B1C0F331B78072BE0
:1033000030D93B1C0F331B780B2B2BD83B1C0F33B6
:103310003A1C0F321278083A1A707B685B687A6838
:1033200052689269391C0F310978C90003311F2096
:10333000041C8C40211CC9430A409A617B685B686D
:103340007A6852689169FA1C10781F2210403A1C62
:103350000F321278D2000332041C9440221C0A431C
:103360009A6134E03B1C0F331B780B2B2FD93B1C8D
:103370000F331B780F2B2AD83B1C0F333A1C0F320C
:1033800012780C3A1A707B685B687A685268D26966
:10339000391C0F310978C90003311F20041C8C40EF
:1033A000211CC9430A40DA617B685B687A6852680D
:1033B000D169FA1C10781F2210403A1C0F32127883
:1033C000D2000332041C9440221C0A43DA61BD4639
:1033D00005B090BD80B500AF00F0B0F800F0B2F8D5
:1033E00000F020FA00F0C2F9FFF724FEFFF708FB17
:1033F000FFF7EEFD00F078FA00F002F8BD4680BD60
:1034000080B586B000AF3B1C00221A600433002256
:103410001A60043300221A60043300221A60043355
:1034200000221A60043300221A6004333B1C1A681D
:103430009023DB05196C0F230B401A433B1C1A60C9
:103440009023DB059022D205126C0F218A431A6467
:103450009023DB059022D205D26907218A430621F9
:103460000A43DA619023DB059022D205926A072194
:103470008A4305210A439A629023DB059022D205F4
:10348000126B07218A4304210A431A639023DA0549
:103490009023D90586235B00CB588021C9051943A9
:1034A00086235B00D1509023DA059023D90584232D
:1034B0005B00C9581D4B0B401D49194384235B0019
:1034C000D1509023DA059023D90586235B00C95893
:1034D000164B0B40A021C904194386235B00D15031
:1034E0009023DB053A1C11680F2211409022D2056F
:1034F000126C0F2082430A431A640E4B0D4A126964
:1035000080210A431A610B4B0A4A12698021090281
:103510000A431A61074B074A5169074A0A4090213A
:1035200009020A435A61BD4606B080BDC0FFFFF8DC
:103530002000000500010440FF47FFFF80B500AFF9
:10354000BD4680BD80B500AF0A4BC0225A62C0465E
:10355000084B5A6A04231340FAD1074B064A1268F3
:103560001A6000F011F8034BC3225A62FDF7DAFD2E
:10357000BD4680BD000001400003014080B500AFA2
:103580000023181CBD4680BD80B584B000AF002369
:10359000FB600023BB60184B1A68FF231B0213401B
:1035A0001B0AFB600123BB60134B1B687B607B68BD
:1035B000FF2293437B60104B7A681A600E4B0E4AD1
:1035C00012680E490A431A60C0460B4B1A688023E2
:1035D000DB051340F9D1FA68BB689A4208D0FA6853
:1035E000BB689A4202D200F069F801E000F008F8E6
:1035F000BD4604B080BDC046000301400000F03F5E
:1036000080B584B000AF2A4B1A68FF231B02134019
:103610001B0AFB600123BB60BB689A00FB689A42EF
:1036200024D2FB68032293430433FB60FB689B08AE
:10363000FB601F4B1B687B60FB681B021B041A0CA2
:1036400079681C4B0B4013437B60194B7A681A60F6
:10365000174B174A126818490A431A60C046144BA0
:103660001A688023DB051340F9D11CE0104B1B685E
:103670007B60BB681B021B041A0C79680D4B0B4066
:1036800013437B600A4B7A681A60094B084A126838
:1036900009490A431A60C046054B1A688023DB05B6
:1036A0001340F9D100E0B7E7BD4604B080BDC04685
:1036B00000030140FF00FFFF0000F03F80B584B031
:1036C00000AF274B1A68FF231B0213401B0AFB6045
:1036D0000123BB60FB689A00BB689A421FD2FB685B
:1036E0009B00FB601E4B1B687B60FB681B021B047E
:1036F0001A0C79681B4B0B4013437B60184B7A689C
:103700001A60174B164A126817490A431A60C046D6
:10371000134B1A688023DB051340F9D11CE0104BD2
:103720001B687B60BB681B021B041A0C79680D4B7D
:103730000B4013437B600A4B7A681A60084B084AB7
:10374000126809490A431A60C046054B1A6880236B
:10375000DB051340F9D100E0BCE7BD4604B080BDF5
:1037600000030140FF00FFFF0000F03F80B582B082
:1037700000AF0D4B1B68002B12D100237B6009E0CA
:103780000A4B7A689200D358181C00F011F87B6835
:1037900001337B607B68002BF2D0034B01221A605F
:1037A000BD4602B080BDC0468C090020B40900208F
:1037B00090B583B000AF7860174B1A697B685B687F
:1037C00013401DD1154BC0225A62134B124A126886
:1037D00013490A431A60104B0F4A11697A685268FC
:1037E0000120041C9440221C0A431A61C0460A4B63
:1037F0001A688023DB051340F9D1084BC3225A62B3
:103800007B681B687A681268D268802149000A4385
:10381000DA60BD4603B090BD0003014000000140E6
:103820000000F03F80B582B000AF00237B600D4BFD
:103830001B68002B12D100237B6009E00A4B7A68D9
:103840009200D358181C00F011F87B6801337B609C
:103850007B68002BF2D0034B01221A60BD4602B0F8
:1038600080BDC04690090020B809002090B583B003
:1038700000AF78607B685B68022B23D8174B1A690E
:103880007B689B6813401DD1154BC0225A62134BB5
:10389000124A126813490A431A60104B0F4A116901
:1038A0007A6892680120041C9440221C0A431A6121
:1038B000C0460A4B1A688023DB051340F9D1084B38
:1038C000C3225A627B681B687A681268D2688021BA
:1038D00049000A43DA60BD4603B090BD00030140D1
:1038E000000001400000F03F80B582B000AF01232E
:1038F0007B60504B5B681B78002B00D096E04E4BF2
:103900004D4A12684D490A431A604D4BC0225A6213
:10391000494B494A126901210A431A61484BC322A3
:103920005A62C046444B1A688023DB051340F9D124
:10393000444BFF221A603F4B1B683E4A12681268D4
:1039400001218A431A603B4B1A683A4B5B7B190290
:10395000C0239B001940374BDB7DD801FF23034078
:103960001943344B1B7B181C1F2303400B4380213E
:10397000090219438023D1502E4B1A682D4B196828
:103980008023C958304B19408023D150294B1A68E5
:10399000284B1B7D1906E023DB041940254B1B7CBB
:1039A0001804F8235B0303401943224B9B7C180245
:1039B000E023DB00034019431E4B9B7B181C1F2395
:1039C00003401943A023D1501A4B1A68194B5B7D51
:1039D0001906E023DB041940164B5B7C1804F8231E
:1039E0005B0303401943134BDB7C1802E023DB002D
:1039F000034019430F4BDB7B181C1F230340194363
:103A0000A423D1500B4B1A680A4B5B8919040F4B46
:103A10001940084B1B891B051B0D1943B823D150B6
:103A2000044B5B6801221A7000237B60BD4602B024
:103A300080BDC04610640010000301400000F03F4C
:103A40000000014000050140FF7FFFFF0000FF0F65
:103A500080B584B000AF78600123FB607B685B6851
:103A60001B78012B31D11B4B1A4AD26801210A4322
:103A7000DA607B681B687A681268126801218A43E1
:103A80001A607B681A6880231349D1507B681A68D2
:103A90007B6819688023C958104B19408023D15086
:103AA0007B681A68A0230E49D1507B681A68A4234A
:103AB0000B49D1507B681A68B8230A49D1507B68FA
:103AC0005B6800221A700023FB60FB68181CBD466F
:103AD00004B080BD0003014060FCFFFFFF7FFFFFDB
:103AE000E0F8E0F800F000F080B584B000AF786056
:103AF0000123FB607B685B681B78012B09D17B6825
:103B00001B687A681268126801210A431A60002350
:103B1000FB60FB68181CBD4604B080BD80B584B056
:103B200000AF78600123FB607B685B681B78012B2A
:103B300009D17B681B687A681268126801218A4380
:103B40001A600023FB60FB68181CBD4604B080BDF2
:103B500080B584B000AF78600123FB607B685B6850
:103B60001B78012B0CD17B681A687B68196880234D
:103B7000CB588021090619438023D1500023FB60D4
:103B8000FB68181CBD4604B080BDC04680B582B03D
:103B900000AF01237B600D4B5B681B78012B10D1BC
:103BA0000A4B9B7D012B0AD1084B1A68074B1968F9
:103BB0008023CB588021090619438023D15000234C
:103BC0007B607B68181CBD4602B080BD106400108D
:103BD00080B584B000AF78600123FB607B685B68D0
:103BE0001B78012B09D17B681B687A681268126800
:103BF00008218A431A600023FB60FB68181CBD463D
:103C000004B080BD80B584B000AF78600123FB6054
:103C10007B685B681B78012B09D17B681B687A681D
:103C20001268126808210A431A600023FB60FB68CF
:103C3000181CBD4604B080BD80B584B000AF78606C
:103C40000A1CFB1C1A700123FB607B685B681B78F5
:103C5000012B1DD1FB1C1B78022B03D9FB1C1B78ED
:103C6000052B13D17B681A68FB1C1B781902E02313
:103C7000DB0019407B681868A023C058074B03403D
:103C80001943A023D1500023FB6001E00223FB6015
:103C9000FB68181CBD4604B080BDC046FFF8FFFF9E
:103CA00080B584B000AF78600A1CFB1C1A70012339
:103CB000FB607B685B681B78012B17D1FB1C1B78B2
:103CC0001F2B11D87B681A68FB1C19781F23194019
:103CD0007B681868A023C3581F2083431943A0237F
:103CE000D1500023FB6001E00223FB60FB68181C3D
:103CF000BD4604B080BDC04680B584B000AF7860DA
:103D00000A1CFB1C1A700123FB607B685B681B7834
:103D1000012B1DD1FB1C1B78022B03D9FB1C1B782C
:103D2000052B13D17B681A68FB1C1B781906E0234E
:103D3000DB0419407B681868A023C058074B034078
:103D40001943A023D1500023FB6001E00223FB6054
:103D5000FB68181CBD4604B080BDC046FFFFFFF8DD
:103D600080B584B000AF78600A1CFB1C1A70012378
:103D7000FB607B685B681B78012B19D1FB1C1B78EF
:103D80001F2B13D87B681A68FB1C1B781904F823B7
:103D90005B0319407B681868A023C058074B034099
:103DA0001943A023D1500023FB6001E00223FB60F4
:103DB000FB68181CBD4604B080BDC046FFFFE0FF95
:103DC00080B584B000AF78600A1CFB1C1A70012318
:103DD000FB607B685B681B78012B1DD1FB1C1B788B
:103DE000022B03D9FB1C1B78052B13D17B681A68A7
:103DF000FB1C1B781902E023DB0019407B68186864
:103E0000A423C058074B03401943A423D1500023D7
:103E1000FB6001E00223FB60FB68181CBD4604B098
:103E200080BDC046FFF8FFFF80B584B000AF78606A
:103E30000A1CFB1C1A700123FB607B685B681B7803
:103E4000012B17D1FB1C1B781F2B11D87B681A681C
:103E5000FB1C19781F2319407B681868A423C358DA
:103E60001F2083431943A423D1500023FB6001E0AA
:103E70000223FB60FB68181CBD4604B080BDC04631
:103E800080B584B000AF78600A1CFB1C1A70012357
:103E9000FB607B685B681B78012B1DD1FB1C1B78CA
:103EA000022B03D9FB1C1B78052B13D17B681A68E6
:103EB000FB1C1B781906E023DB0419407B6818689B
:103EC000A423C058074B03401943A423D150002317
:103ED000FB6001E00223FB60FB68181CBD4604B0D8
:103EE00080BDC046FFFFFFF880B584B000AF7860AA
:103EF0000A1CFB1C1A700123FB607B685B681B7843
:103F0000012B19D1FB1C1B781F2B13D87B681A6857
:103F1000FB1C1B781904F8235B0319407B681868A5
:103F2000A423C058074B03401943A423D1500023B6
:103F3000FB6001E00223FB60FB68181CBD4604B077
:103F400080BDC046FFFFE0FF80B584B000AF786061
:103F500039600123FB607B685B681B78012B0AD109
:103F60007B681B681A68022313405B08DAB23B685F
:103F70001A700023FB60FB68181CBD4604B080BDAE
:103F800080B584B000AF786039600123FB607B6846
:103F90005B681B78012B06D17B681B689A683B68BD
:103FA0001A600023FB60FB68181CBD4604B080BD8E
:103FB00080B582B000AF01237B60344BC0225A62CF
:103FC000324B5A6A0423134059D1314A304988236D
:103FD000CB580121181C8843011C8823D1502C4A3E
:103FE0002B498823CB580221181C8843011C8823A5
:103FF000D150274A26498823C958264B194088237F
:10400000D150234A22498823C958234B1940882379
:10401000D1501F4A1E498823C958204B1940882374
:10402000D1501B4A1A498823CB585B005908882372
:10403000D150174A16498C23CB580221181C8843AB
:10404000011C8C23D150124A11498C23CB580221D8
:10405000181C8843011C8C23D1500D4A0C498C2319
:10406000C9580D4B19408C23D150094A08498C235B
:10407000C9580A4B19408C23D15000237B60034B55
:10408000C3225A62BD4602B080BDC0460000014056
:1040900000000348FF7FFFFFFFFFFEFFFFFFFDFF64
:1040A00080B582B000AF01237B60334BC0225A62DF
:1040B000314B5A6A0423134057D1304A2F49882381
:1040C000CB58012119438823D1502C4A2B498823EE
:1040D000CB58022119438823D150284A27498823E5
:1040E000CB588021090219438823D150234A234900
:1040F0008823CB588021490219438823D1501F4A75
:104100001E498823CB588021890219438823D15026
:104110001A4A1A498823CB58802109061943882353
:10412000D150164A15498C23CB58012119438C23B1
:10413000D150124A11498C23CB58022119438C23A8
:10414000D1500E4A0D498C23CB5880214902194386
:104150008C23D150094A09498C23CB5880218902EC
:1041600019438C23D15000237B60034BC3225A6236
:10417000BD4602B080BDC0460000014000000348BB
:10418000002934D00123002210B488422CD301240A
:104190002407A14204D2814202D209011B01F8E79F
:1041A000E400A14204D2814202D249005B00F8E758
:1041B000884201D3401A1A434C08A04202D3001B84
:1041C0005C0822438C08A04202D3001B9C082243B7
:1041D000CC08A04202D3001BDC082243002803D0F5
:1041E0001B0901D00909E3E7101C10BC7047002827
:1041F00001D00020C04307B4024802A14018029039
:1042000003BDC046190000000029F0D003B5FFF738
:10421000B9FF0EBC4243891A1847C0467047C046D2
:104220008446081C6146FFE71FB500F017FA002816
:1042300001D40021C8421FBD10B500F09FF94042D3
:10424000013010BD10B500F009FA002801DB002094
:1042500010BD012010BDC04610B500F0FFF90028C8
:1042600001DD002010BD012010BDC04610B500F0DA
:10427000ADF9002801DC002010BD012010BDC046B2
:1042800010B500F0A3F9002801DA002010BD0120CC
:1042900010BDC0469E2110B5C905041CFFF7F0FFF4
:1042A000002803D1201C00F02BFD10BD9E22201CF5
:1042B000D10500F04BFB00F023FD80231C06001904
:1042C000F3E7C0460000000038B50E4B0C4A041C52
:1042D0000D1C01F015FF002804D1201C291C01F041
:1042E00053FE38BD074B064A201C291C01F0CAFAB0
:1042F00001F04AFE802319064018F2E7C046C04686
:10430000000000000000E041F0B55F4656464D4613
:104310004446F0B44502440083B00E1C6D0A240EDE
:10432000C70F002C07D1002D00D091E004210122FD
:104330008846924609E0FF2C55D0802318040021BE
:104340000543ED007F3C88468A46331C58007602C0
:10435000D90F760A000E8B464CD101229446002ECE
:1043600000D081E05B467B406246414601930A43B0
:104370000F2A50D9201A690181467501A94200D33C
:10438000B3E00122534299441B2400260127621EF8
:10439000381C10404B007600002900DAA9E09D424D
:1043A00000D8A6E0013C002C00DCABE000280CD0DB
:1043B000191C76005B00002901DB9D4201D85B1BC4
:1043C0003E43013C002C00DC9CE059007200002BB5
:1043D00001DB8D4201D8491B3A43013C4B0056009A
:1043E0000029EADAEBE7002D2DD1082002218046D2
:1043F0008A46AAE7FF2820D08022130400211E430A
:104400008C465B467B4062464146F6007F3801930E
:104410000A430F2AAED8564992008A589746019B04
:10442000FF260025F0052843DE07304303B03CBCDF
:1044300090469946A246AB46F0BD331C5A1E9341A6
:1044400002339C468EE70C22032390469A467CE773
:10445000281C01F05FFE7622441F5342A5401C1A1F
:1044600000208046824670E7301C01F053FE762320
:10447000411F8E405A420021101A8C4672E70023D9
:104480003C4DFF26CEE75F46351C01976346022B65
:10449000C5D0032B63D0012B43D049467F3100297F
:1044A00035DD0F272F40042F00D004352B0103D515
:1044B000314A494615408031FE29B0DCA801450A41
:1044C000CEB2019BAEE700260025ABE78020C103FA
:1044D0000D4211D00E420FD10E4373025D0AFF262A
:1044E0005B469FE701975346D1E7491B1A240126F3
:1044F0004CE75B1B3E4355E70D436A02550A3B1CE4
:10450000FF268FE71D1C6B1E9D413543C5E77E24AA
:1045100067424A46B91A1B2908DD019B002600257F
:1045200080E7019D00262B4000257BE74E469E3606
:10453000281CB5402B1C5D1EAB41C84003430F2512
:104540001D40042D00D004335A0103D5019B0126E0
:10455000002567E79C01650A019B002662E780272A
:10456000FC0325436E02750A019BFF265AE7C046ED
:1045700028640010FFFF7F00FFFFFFF743024200A7
:1045800070B55C0AC60F130E48024A00450A120EA7
:10459000C90FFF2B05D0FF2A08D0012093420BD072
:1045A00070BD0120002CFBD1FF2AF6D10120002D87
:1045B000F6D101209342F3D1AC42F1D18E4203D027
:1045C000002BEDD1002CEBD10020E9E7F0B5430240
:1045D00042004F00C60F48025C0A450A130EC90F7D
:1045E0003A0EFF2B26D0FF2A29D0002B0CD1604297
:1045F00060418446002A0AD0002816D18E4221D07C
:10460000002E14D1012014E0002AF7D194466F4205
:104610006F416046002805D1002FEFD00120002E09
:1046200007D004E00020002F03D10029EAD10121A6
:104630004842F0BD002CD6D002225042F9E7002DAE
:10464000D3D0F9E79342DBDC04DBAC42D8D80020BE
:10465000AC42EED2002EEAD00120EAE7F0B54302E8
:1046600042004F00C60F48025C0A450A130EC90FEC
:104670003A0EFF2B26D0FF2A28D0002B0FD0002A7D
:1046800014D194466F426F416046002814D0002038
:10469000002F03D100290DD101214842F0BD604215
:1046A00060418446002AEDD00028F3D18E4211D01B
:1046B000002EF1D10120F1E7002FF7D00120002ECC
:1046C000ECD0E9E70220002CE8D1D4E70220002D4D
:1046D000E4D1D2E79342EBDC04DBAC42E8D8002023
:1046E000AC42DBD2002ED7D00120D7E7F0B55F4631
:1046F00056464D464446F0B44502460083B00F1C72
:104700006D0A360EC40F002E06D1002D70D1042183
:1047100001228846924609E0FF2E43D080231804E8
:1047200000210543ED007F3E88468A46381C430041
:104730007F02C10F7F0A1B0E8B463AD10121002F49
:1047400062D158466040424601900A430F2A3FD941
:104750002C04F018260C3B041A0C311C51433F0C5E
:104760002D0C7E436A438146080C36182C1CB31866
:104770007C439A4200D99AE009041D04080C2E18C3
:10478000B5011B0C691E8D41B20EE7181543BC0123
:1047900025432B014BD50120284001216D08894478
:1047A000054344E0002D1ED10820022180468A46A0
:1047B000BCE7FF2B12D0802210040743584600218B
:1047C00060404246FF007F3B01900A430F2ABFD85A
:1047D00090005B4A8446624410688746391C4A1E32
:1047E00091410231ADE70C22032390469A469DE7A2
:1047F000281C01F08FFC7622461F5342B5401E1A3A
:1048000000208046824691E7381C01F083FC762127
:10481000431F4A429F400021131A92E701945146D8
:1048200002292CD0032900D180E0012948D04E462E
:104830007F36002E51DD0F242C40042C00D004358F
:104840002A0103D53F494E460D408036FE2E3DDD00
:10485000019B01241C40FF210025C805E2072843D5
:10486000104303B03CBC90469946A246AB46F0BD0F
:104870000024354DFF21F0E751460229D2D1019D98
:1048800001242C40FF210025E7E75E463D1C0196F0
:10489000C6E73D1CC4E78026F3031D420BD01F4230
:1048A00009D11F437A02550A5C46FF21D5E78022D1
:1048B0005702E41960E71D436F027D0AFF21CCE730
:1048C000019B00251940CCB20021C6E70198AD013B
:1048D00001246D0AF1B20440BFE77E2673424A46C6
:1048E0009F1A1B2F05DD019D01242C40002100256E
:1048F000B3E749469E312C1C8D402E1CFC40751E92
:10490000AE4126430F203040042800D00436700109
:1049100005D5019F01243C40012100259DE7019A16
:10492000B30101245D0A1440002196E78022D003E0
:1049300005436C020199650A01240C40FF218CE7B4
:1049400068640010FFFFFFF7FFFF7F00F8B5430228
:1049500045004F024C00C20F980984462D0E200ED0
:10496000C90FBF09FF2854D0012671408A423BD0AD
:104970002C1A002C00DC89E0002825D1002F4BD117
:104980006E1C2C1C6346151C0F221A40042A00D0F2
:1049900004338027F904012219402A40002906D057
:1049A000FF2E00D181E0B14D341C2B400136F6B210
:1049B000DD08012E62DD6B025D0AE4B2E4052543E9
:1049C000281CD2071043F8BDFF2D51D08021CB0405
:1049D0001F4301261B2C70DD67462C1CBB1B151CBE
:1049E000580122D4661CCFE72E1A002E76DD00284F
:1049F00032D0FF2D3CD08024E1040F4301231B2E35
:104A000000DCD1E063442C1C58017AD4661C151CD0
:104A1000BAE7002FAAD1A7E7013C002C6DD163466D
:104A20002C1CDB1B151C5801DCD59A019609301C87
:104A300001F070FB05388640844239DC001B1F23DF
:104A40001A1A331C311C441C9340E1405E1EB341D2
:104A50000B430126002497E7002F00D190E7013E89
:104A6000002E03D164463B192C1CCDE7FF2DC5D188
:104A7000151C802263465600FF2485E7002D9CD03C
:104A8000002C28D08020C7033D4394E7002C45D15B
:104A90006B1CD8B2012800DC90E06446E61B730171
:104AA00057D53E1B2C1C0D1CC1E7FF24002585E7B4
:104AB0006E4B241A3340661C66E7381C2021E04008
:104AC0000C1BA7403E1C771EBE41064367462C1CAC
:104AD000BB1B151C84E769024D0A6FE7002E79D1D4
:104AE0006C1CE0B201284BDDFF2C00D198E0614640
:104AF0007F18AE1C7B08151C46E7FF2D00D068E729
:104B0000B6E7671CFF2F36D05848012119400340F3
:104B10005B08A61C0B433C1C151C35E76642002DA8
:104B20001ED0FF286FD080256246EB041A439446BE
:104B300001251B2E09DC62462023F24064469E1BA1
:104B4000B440251C6C1EA54115437B1B041C0D1C89
:104B500069E7002E0CD1002201260423002426E759
:104B60006446002C55D1461C3B1C041C0D1C0BE755
:104B70002C1C151C5BE780235E00FF24042316E732
:104B8000002D00D08DE06546002D00D1ADE0002F56
:104B900000D181E07B195C0100D47EE0334F151C0D
:104BA0003B4002260124EFE6381C2023F0409E1BE8
:104BB000B7403B1C5F1EBB41034323E7002D15D1CB
:104BC0006546002D47D1002FC5D03B1C0D1C01268A
:104BD0000024D9E67642002D26D16546002D00D06E
:104BE0007DE0461C3B1C041C151CCDE66546002DD3
:104BF00040D1002F07D1802100224E001C4BFF2402
:104C0000D5E6FF2894D180203B1C0D1C4600FF24D4
:104C1000BAE6013E002EF4D13B1B0D1C041C02E73A
:104C200080256E000423C2E6FF2852D0802461460E
:104C3000E30419438C4601231B2E09DC2021644622
:104C4000F44065468E1BB5402B1C591E8B412343F7
:104C5000DB19041CD8E6002F1ED0EB1B58014BD5E6
:104C60007B1B01260D1C00248EE6C046FFFFFFFBC8
:104C7000FCFFFF03002F00D1FAE68020EB08C403FD
:104C8000234237D0FF08274234D13B1C0D1C802221
:104C9000DB005600FF2477E66346151C012600243E
:104CA00072E66446002C14D0002F00D1E0E6802389
:104CB000E608D803311C064203D0F908014200D0AF
:104CC000311C151C8022CB005600FF245CE6FF2817
:104CD000B1D180203B1C151C4600FF2454E6013E48
:104CE000002EF4D17B19041C8EE63B1C151C0126FA
:104CF000002449E6151CCAE7002B00D12BE7CCE7BE
:104D000043024200590A130EC20F00207E2B0DDD14
:104D10009D2B0CDC802000040143952B0ADC96209F
:104D2000C31AD9404842002A00D1081C70470349E1
:104D30005018FBE7963B9940F4E7C046FFFFFF7F22
:104D400010B5041E34D001F0E5F99E231B1A962BF2
:104D500007DC083884406402610ADBB2D8050843E6
:104D600010BD992B0ADD021C1B32211C91400A1C2C
:104D7000511E8A410521091ACC40144305281ADC2A
:104D8000184A0F2122400C40042C00D0043251015B
:104D900005D59F24231AFF2B21D012480240591C0D
:104DA000CCB2D208012C09DD5002410ADBB2D5E7B2
:104DB00000230021D2E7421F9440E1E7002A0BD0F4
:104DC000002B06D08021CC0322435202510ADBB2D1
:104DD000C4E75002410AC1E7DBB20021BEE7FF236E
:104DE0000021BBE7FFFFFFFBF0B54D4644465F46A1
:104DF0005646F0B41D1C4B00141C0E035B0DCA0F6D
:104E000087B0071C360B98469146002B1DD1321CEB
:104E1000024300D181E1002E00D104E2301C01F0F8
:104E200079F9272800DDF8E12821031C083B0A1A3C
:104E3000391C9E40D1400E439F40C14B0021181A9F
:104E4000002280468A4600920FE0BE48834231D05D
:104E500080214B031E43BC487A0FF600002100233B
:104E60001643FF0080448A460093291C201C251C01
:104E70004A000C03CB0F240B520D9B4625D1211C5D
:104E8000014300D150E1002C00D1C2E1201C01F00F
:104E900041F9272800DDB6E1031C2822083B291C24
:104EA000121A9C40D1400C439D40A54B1A1A002079
:104EB000029019E0321C3A4300D029E1082702236E
:104EC000BA46002600270093CFE79E48824200D1D1
:104ED00013E180214B031C439B49680FE40000232E
:104EE0000443ED005218029348465B464340029843
:104EF0005146019301430F2900D8DFE043469A1A37
:104F00000492A64200D86EE171087B08F60733438D
:104F1000FA07894698460292280E240204432D027D
:104F20002704390CAB46250C00914846291CFFF795
:104F300027F9009F061C4743291C4846FFF764F9E0
:104F4000434608041A0C1043874207D90019013E52
:104F5000844203D8874201D9013E0019C11B8A4609
:104F6000081C291CFFF70CF9009B071C4343291C54
:104F700050469946FFF748F9424610040B04010CCD
:104F80000B43994504D91B19013F9C4200D864E1A9
:104F900036043E435F464A46390C89469B1A5946B9
:104FA0003204170C0A0449467943120C03928C46CA
:104FB0000399300C7A4341434F4678438C44170C95
:104FC0006744B94202D9802149024018390C1204C1
:104FD00040183F04110C7F18834200D227E100D112
:104FE00041E102991B1ACF1BB942804141425A1A32
:104FF0009046A24200D15FE1101C291CFFF7C0F8C7
:10500000009B02904343291C40469A46FFF7FCF858
:10501000380C090401438A450AD9029A0919013A50
:1050200002928C4204D88A4502D9013A02920919A7
:105030005346C81A291C0590FFF7A2F8009A291CAC
:105040004243804605989246FFF7DEF83F040D0480
:105050003A0C2A43924509D901214B42121998442E
:10506000944203D8924501D998441219029D4346AF
:105070002F041F435046111A3804030C4D465D435C
:105080000398AC46039D3A0C584355434B465A434C
:10509000AC44030C63449D4202D980256D02521931
:1050A0001D0C000452191B04050C5B19914200D21F
:1050B000E6E000D13DE1012217435AE08900234890
:1050C0008C46604401688F46019B1E4A00260027DB
:1050D00000200021381C0F0D3C051D4D34431205E6
:1050E000254015436E00DB077108194307B03CBC2F
:1050F00090469946A246AB46F0BD211C03202943A9
:10510000029000D0F0E60223002400250293EBE693
:105110000C20032182460091A7E604270123BA460A
:10512000002600270093A0E601210024002502911B
:10513000DAE601270023074E7F42024AC8E7C0464D
:105140000DFCFFFFFF07000001FCFFFFA86400103B
:10515000FFFF0F80FFFF0F002F1C5A46029D261CE9
:105160000192022DB0D0032D00D101E1012D00D11B
:105170009CE0049B82481A18002A00DC8CE00F2473
:105180003C40042C05D03B1DBB42BF417D427619FB
:105190001F1CF10105D57B4A04998020C4001640EC
:1051A0000A19794B9A4200DD8EE77507FF087602EF
:1051B00051052F43360B4A0D019B89E7002200263B
:1051C000002785E7802001030E4216D00C4214D13F
:1051D0000C432603360B5B462F1C6C4A78E74C4683
:1051E0000194009DBDE7A64243D00498B84601381B
:1051F00000270490B14602978EE60E4333031E0B40
:10520000624A4B4664E7041C283CA5402C1C002540
:105210004BE600F07FFF20303BE6061C283EB740FF
:105220003E1C002709E600F075FF2030F9E5029AE0
:10523000013E111C59445945924152421219D3184A
:105240009C4204D298426BD816D01B1ACBE6A342DC
:10525000FBD18B45F6D9231AC5E6994500D897E6C8
:10526000013F1B1994E6029ABA42E0D30299002347
:10527000B9E6AF42B9D947E68F4251D80023B2E62A
:105280000919013F58468C4219D9914200D012E7C2
:10529000984200D00FE76CE73D4C049D631B382B10
:1052A0001CDD019B00220026002711E7019B002244
:1052B0002B40002600270BE701277F4259E78A424F
:1052C00003D800D0F7E69842E2D25D466800584520
:1052D000AD416D422C19013F0919D6E71F2B34DC73
:1052E000049C2C4A381CA518311CAF40D840A9405A
:1052F0003C1C0143671EBC410F1C2743DE400F23AB
:105300003B40042B05D03A1DBA42BF417D4276197D
:10531000171C320211D5019B012200260027D7E677
:1053200059445945924152421219D318013E1B1A51
:1053300059E6002BA4D10020AAE77007FF087102EC
:1053400007430E0B019B0022C2E61349049C301C4C
:105350000A1BD040051C202B08D0104BE1188E40B2
:1053600037437B1E9F412F430026C8E70026F7E7FF
:1053700080221003064331030E0B019B034AA7E66C
:10538000FF030000FFFFFFFEFE070000FF07000015
:1053900002FCFFFF1E040000E2FBFFFF3E040000D2
:1053A000F0B5564644465F464D46F0B44F001D1CCE
:1053B0000B03141C1A0B7B0D87B0061C92469846F3
:1053C000CF0F002B21D1024300D149E15346002BDE
:1053D00000D1E4E1504600F09DFE031E272B00DDC6
:1053E000D8E1083B5146994028228846111A321CC0
:1053F000CA4041460A4392469E40D84B0022181AA2
:10540000002180469146039111E0D54883423ED069
:10541000802153464A031A43D000710F0843D14AF2
:10542000824600230020F600904499460390291CF0
:10543000201C251C4A000C03CB0F240B520D9B464D
:1054400031D1211C014300D112E1002C00D19DE19A
:10545000201C00F05FFE272800DD91E1031C2822BC
:10546000083B291C121A9C40D1400C439D40BB4B69
:1054700059461A1A794000204B46019103430F2BDD
:1054800026D89900B84B8C46634419688F46111C86
:10549000314300D0DFE0082600200221B1468246D9
:1054A00000260391C3E7AE48824200D1C9E08021C3
:1054B0004B031C43AB49680FE4000443ED00521852
:1054C0000020594679404B46019103430F2BD8D910
:1054D00042443304290404921A0C0F0C101C784324
:1054E000360C331C80462D0C7B43301C6843111C4A
:1054F00069439C4643468346180C0818604484451B
:1055000000D91FE1010C4346039119040B0C000460
:10551000C0182104240C0590101C6243090C02924F
:105520004843321C66434A43029BB146060C9046F0
:10553000B4461A1C62444244904502D98026730244
:105540009944160CB046C14400044B46060C1204A4
:105550000293931956463204100C021C6A439C466F
:10556000031C7B439146320C574398461B0C9A46CA
:10557000D144B94455434F4502D980277E02AD1925
:105580004B461F0C4646ED191F0433041E0C031C2A
:105590004B436043514354431A0C8018B0464018A3
:1055A00047449A46814202D980214E02A419039BA6
:1055B0001A1C62445A44624589414E425146B346E0
:1055C00003040E049C460299330C6344CE18B04683
:1055D000C246DA44D219BA42BF4151467B426F18E3
:1055E000F9189946DA459B415E42029BB3469845BD
:1055F000B64176425B461E43000C49459B41AF4293
:10560000AD4136186F425842384336180598341960
:1056100056020643CB0D6402701E8641D20D16431E
:1056200049021C430E43E0012FD50127049D37405A
:1056300073083E1CE00701351E43049506436408C9
:1056400023E0231C2B430320002B00D039E7002448
:105650000025022035E70C22032391460393E6E65A
:10566000042600230120B1469A4600260390DEE678
:1056700000240025012024E703985446022844D042
:10568000032800D1EAE0012860D0049A3749501875
:10569000002800DC95E00F273740042F05D0311D8E
:1056A000B142B641754264190E1CE10105D530487E
:1056B000049A8023DF000440D0192E49884224DC5C
:1056C000019B6507F6086402420501272E43240B5F
:1056D000520D1F4000200021090D0D052543264CC9
:1056E00012052C4014436300301C5E08FF07311C78
:1056F000394307B03CBC90469946A246AB46F0BD44
:105700005A462E1C01920228BAD1019E0127374029
:10571000134A00240026DDE7544601970398ADE7BD
:1057200001260027154C76420D4AD3E72E1CA5E72B
:10573000802213035146194235D10B431D032C0B14
:10574000074AC7E780214B029B44DBE6019B00220E
:105750001840C7B200240026BCE7C0460DFCFFFF7E
:10576000FF07000001FCFFFFE8640010FF030000DA
:10577000FFFFFFFEFE070000FFFF0F80FFFF0F008F
:10578000041C283CA5402C1C002570E600F0C2FC3F
:10579000203060E6283B9E40B24600262DE600F011
:1057A000B9FC203019E61C4206D11C432603340BF9
:1057B0005F462E1C2E4A8DE70B431803040B2C4A20
:1057C00088E72C4F049D7B1B382B06DD019E0127AB
:1057D00037400022002400267CE71F2B21DC049A9E
:1057E000254F351CD119201C8E40DD408840321CCD
:1057F0002843561EB241061C1643DC400F2333409B
:10580000042B05D0371DB742B641714264183E1CC7
:10581000250217D5019B01271F40012200240026E5
:1058200058E71648049A211C871AF9400D1C202BB2
:1058300012D0134BD01884402643721E96412E433B
:105840000024DBE7019A6507F6086002012717408C
:105850002E43040B00223DE70024EDE780210F03D7
:105860003C43019824030127240B0740004A31E7F9
:10587000FF07000002FCFFFF1E040000E2FBFFFF29
:105880003E040000F0B557464E464546E0B4071CBE
:105890000D034E00680ACC0F790F08438446111C93
:1058A00018035A00FD00400ADF0F4B0F1843CA4B84
:1058B000C900760D520D8A469A4200D1E0E00123DC
:1058C0005F40B946BC4200D1A8E0B71A002F00DC07
:1058D00010E1002A12D15246024300D1D4E0013F28
:1058E000002F00D060E151466F1ABD42AD416246C3
:1058F0006B42101A3D1CC31A371C24E0B64A96426C
:1059000000D1E3E080210B041843382F00DD23E1B0
:105910001F2F00DD66E12021C91B021C53468A406F
:10592000FB401A4353468B40191C4B1E9941031CE4
:105930000A43FB40AA1A67469542AD41F81A6B42EA
:10594000C31A151C371C1A0200D4C7E05E02710A84
:1059500088464246002A00D1F0E0404600F0DAFBDB
:10596000021C083A1F2A00DDF1E02823181A2E1C19
:105970004146C6409140331C0B439540974200DDA1
:10598000A9E0D01B411C1F2900DD12E11F273A1A94
:105990002E1C181CCE409040954030436A1E954105
:1059A000CB400543012100270F262E40042E00D1B5
:1059B00072E02E1DAE42AD41684280221B180125C7
:1059C000100418402C40002807D0834FB94200D162
:1059D000B0E0824A0F1C13400131F20849055E070E
:1059E0003243DB08480D012800DC79E01B03780511
:1059F0001E0B470D00200021090D7D050B05784F7A
:105A00001E43101C37406A0817437E007108E407E4
:105A100021431CBC90469946A246F0BDB31A002B08
:105A200000DCA6E0002A3ED06B4A96424ED0802190
:105A30000F043843382B00DC18E153461843002785
:105A40000022002800D001225219AA42AD41674429
:105A50006B42FB18151C371C1E023FD55E487E1C8E
:105A6000864200D17BE15D4901222A400B40680853
:105A7000151CD90705430D435B08B91C371C93E778
:105A8000014300D11BE71CE7711C371C0F2663463E
:105A90002E40042E00D08CE78022012610043440D2
:105AA00018402E1C8FE752460243EDD0013B002BDD
:105AB00009D157467919A942924155426044431988
:105AC000371C0D1CC8E744498E42B3D18020634681
:105AD0000101371C68E7BF1A404A1340791C63E78D
:105AE000151C1D4300D121E2002F3ED0802631033A
:105AF0000B437BE7002F00D086E0721C51054B0D55
:105B0000012B00DCF0E05746EA1B95429B416746BB
:105B1000391A5B42C91A88460B0200D49DE05446EC
:105B2000651BAA459241C01B5742C31B9846371CB0
:105B30004C460EE70F1C002600225BE7281C00F0F5
:105B4000E9FA2030021C083A1F2A00DC0DE7283849
:105B500085402B1C002511E75746384300230022BF
:105B6000002800D1E6E60122E4E61D032E0B002703
:105B700040E7002B00D0D9E0771C79054A0D012AB7
:105B800000DC95E0144B9F4200D1FEE051464919DC
:105B9000A942AD4162466B428018C2184908D50738
:105BA0000D435308B11CFFE60B498E4200D0ACE612
:105BB0008CE7061C1F3E1F1CF7403E1C202973D09B
:105BC0003F22101A83401D436B1E9D413543012126
:105BD00000230027E8E6C046FF070000FFFF7FFF25
:105BE000FFFF0F803B1C203B011CD9400B1C202FCA
:105BF0005CD04022D71BB840021C50460243511EC5
:105C00008A411A43002395E67F42002E40D0CA4CB9
:105C1000A24200D11FE1802166460B041E43B44618
:105C2000382F00DDA9E01F2F00DD3DE12023DE1B22
:105C3000291C6446B440F940B5406B1E9D41214388
:105C400063460D43FB4057467D1BC01AAA459B4146
:105C50005F42C31B4C46171C75E60D1C154320D133
:105C600000240121002304260027B6E61F2B4ADC6E
:105C70002021C91A071C52468F40DA403A43574642
:105C80008F40391C4F1EB941D8400A43071CDBE640
:105C900064462C4369D1511C031C5546171C4C46C5
:105CA00082E6151C371C54E600238CE70022A4E78B
:105CB00067462F43002E00D0D4E0002F00D126E10C
:105CC0005346034300D1E4E051464F19AF42AD4182
:105CD00060446E4283191E0200D44EE197483D1C79
:105CE0000340022101275FE661462943002E29D1A6
:105CF000002976D151460143B2D0031C55464C468B
:105D00000121002750E61F1C203F011CF9400F1CF9
:105D1000202B00D1C6E04022D31A9840021C5046E6
:105D20000243531E9A413A4300278DE65B42002E00
:105D300030D167462F4300D0C8E0511C031C5546A4
:105D4000171C31E6002965D15746074300D1C8E04A
:105D5000031C802055464C460101774F24E68023E2
:105D6000371C19010426002337E6013F002F6ED1AE
:105D700054466146651B401A68E767463D43002369
:105D8000002D00D15FE701255DE78026310100236A
:105D9000042622E668498A4200D1C1E0802766468F
:105DA00039040E43B446382B00DDA2E01F2B00DD82
:105DB000D0E02021C91A2E1C67468F408D40DE405E
:105DC0003E43291C67464D1EA941DF40351C0D434B
:105DD0003E1C554455459B4130185E428319171CA3
:105DE0003AE65646064354D05746EA1B6346954268
:105DF000B641191A7342CB1A1E0200D4A2E07D1BD1
:105E00006446AA45BF41001B7A42831A4C460121D1
:105E10000027C9E5564606433FD062468021570712
:105E2000ED08D3080A033D43134208D0C6081642C2
:105E300005D15546EC0845072543331C4C46680FF1
:105E4000DB0080260343ED0031013B4FACE53A49CE
:105E50008A4200D0E4E68026031C55464C463101B8
:105E6000171CA1E5002F4CD05346034315D06246C2
:105E70008026ED085107D30837030D433B42DED09F
:105E8000C2083A42DBD15546E9084507131C0D43C9
:105E9000D5E763460121002786E58027390163465F
:105EA000254F81E500223AE73C1C203C6646E6404F
:105EB000331C202F5FD04024E71B6646BE40311CB8
:105EC0000D43691E8D411D430023BCE6013B002BA1
:105ED00022D155445545BF417B426044C318171C2D
:105EE000BAE58021042200240901154B5642124FC5
:105EF00073E563461D430026002D00D169E70125A7
:105F000067E78022031C554611010B4F4CE5031C2B
:105F100055460121002747E507498A4200D042E75C
:105F20008021031C55460901171C3DE57F057F0DA7
:105F3000002600225EE5C046FF070000FFFF7FFF4E
:105F4000FFFF7F001D1C154300D189E6151C0121B0
:105F5000002729E51F1C203F6146F940202B10D067
:105F60004026F31A67469F403B1C1D436B1E9D4114
:105F70000D4300262DE70021A2E73D1C012100274B
:105F800012E50023F1E7C046134A0B0330B5051CA8
:105F900048001C0BC90F430D0020934211DD0F4830
:105FA00083420FDC802250030D4A0443D01A1F287D
:105FB0000BDD0C4DEB1ADC40221C5042002900D1B5
:105FC000101C30BD084C0819FBE7C54007482A1CC7
:105FD0001D18AC402243F0E7FE0300001D04000042
:105FE0003304000013040000FFFFFF7FEDFBFFFF01
:105FF000410070B50E0E731C4202C50FD8B2540A90
:10600000012815DD6307E024A000120B34180020DE
:106010000021181C0B0D1E051C4B324361054C085A
:10602000134023435A005608ED07311C294370BD25
:10603000002E16D1002C1ED0201C00F06BF80A2870
:106040001DDC0B22111A021C231C1532CB4094407C
:106050001E1C231C34030E4E220B301A41054C0D1E
:10606000D5E7002C03D06307120B0A4CCFE7094C8D
:1060700000220023CBE7002400220023C7E7011CF5
:106080000B398C40261C0023E4E7C046FFFF0F803D
:1060900089030000FF0700008446101C62468C46FE
:1060A000191C634600E0C0461FB500F003F9002844
:1060B00001D40021C8421FBD10B500F049F840428C
:1060C000013010BD10B500F0F5F8002801DB00200C
:1060D00010BD012010BDC04610B500F0EBF800283F
:1060E00001DD002010BD012010BDC04610B500F03C
:1060F0006DF8002801DC002010BD012010BDC04655
:1061000010B500F063F8002801DA002010BD01206E
:1061100010BDC0461C2101231B04984201D3000C72
:1061200010391B0A984201D3000A08391B0998420A
:1061300001D30009043902A2105C40187047C04620
:106140000403020201010101000000000000000040
:10615000F0B5944647461A03061C580080B4170B46
:10616000420D19480D034C00DB0F2D0B640DC90FB8
:106170009846844208D0144882420DD001209442AF
:1061800012D004BC9046F0BD2B1C33430120002BE1
:10619000F7D10D488242F1D163463B430120002BE9
:1061A000EFD101209442ECD1BD42EAD16645E8D15D
:1061B000414506D0002CE4D1281C3043451EA8419F
:1061C000DFE70020DDE7C046FF070000F0B55746D7
:1061D0004E464546E0B4041C4E000803C90F8A46EB
:1061E000171C59001A03050B700D160B4A0D304988
:1061F000DB0F9C46884232D02D498A4235D0002898
:106200000FD1291C21434B424B419846002A0BD009
:10621000002B1AD1E2452CD05546002D18D1012073
:1062200018E0002AF6D19046311C39434B424B41CD
:106230004146002906D1002BECD056460120002E05
:1062400008D005E00020002B04D16746002FE6D1DE
:10625000012358421CBC90469946A246F0BD2B1C17
:106260002343C9D002214842F4E7331C3B43C6D044
:10627000F8E7904205DC09DA5246002AE8D001200E
:10628000E8E75446002CE3D10120E3E7B542C3D848
:1062900007D00020B542DDD250460028D8D00120DA
:1062A000D8E7BC42B8D80020BC42F5D3D2E7C046FC
:1062B000FF070000F0B544465F4656464D46F0B431
:1062C0009446061C1A035800170B420D2E480D0366
:1062D0004C00DB0F2D0B640DC90F9846844233D060
:1062E0002948824236D0002C19D0002A20D193466A
:1062F00063463B43584258415B468246002B1DD0C3
:1063000051460020002904D14246002A14D101241C
:1063100060423CBC90469946A246AB46F0BD2B1C61
:106320003343584243419B46002AE1D0002BEBD136
:10633000414515D00029EAD10120EAE70028F7D02D
:1063400001200029E5D0E2E72B1C33430220002B7B
:10635000DFD1C5E763463B430220002BD9D1C2E71A
:106360009442E7DC05DBBD42E4D806D00020BD4204
:10637000CFD20029CBD00120CBE76645DAD8002068
:0C6380006645F6D3C5E7C046FF070000E5
:10638C008CACFF7F01000000B4ACFF7F010000006B
:10639C0098190010D21900100C1A0010461A00108F
:1063AC00801A0010BA1A00100000004800010440C6
:1063BC000500000000010440040000000000000083
:1063CC0000C20100070001011F1F050501010000AB
:1063DC002B03150009000600000000000903000053
:1063EC000100000000010440010100000001044014
:1063FC0000000050010000000000044800000000F4
:10640C000200000000000348940900200000000076
:10641C0000000000000000000000010074430010A8
:10642C001E440010C644001086440010C6440010E0
:10643C007E440010C6440010864400101E44001018
:10644C001E4400107E44001086440010E4440010EA
:10645C00E4440010E4440010CC44001050470010F9
:10646C0092480010924800108A480010784800109A
:10647C0078480010704800108A48001078480010C6
:10648C0070480010784800108A4800101C48001012
:10649C001C4800101C48001096480010FC4E0010C0
:1064AC00C8500010BC51001058510010BC510010C5
:1064BC0032510010BC51001058510010C85000103F
:1064CC00C85000103251001058510010DE5100100D
:1064DC00DE510010DE510010C4510010D0540010D9
:1064EC002C5700102C570010005700107856001035
:1064FC0078560010205700100057001078560010E6
:10650C002057001078560010005700101857001034
:0C651C00185700101857001030570010DE
:106530002C4887460000000000000000000000001A
:10654000000000000000000000000000000000004B
:1065500025488746000000000000000023488746C9
:10656000234887462348874623488746234887464B
:10657000234887462348874623488746234887463B
:106580002348874600000000224887462248874665
:10659000224887462248874622488746224887461F
:1065A000224887462248874622488746224887460F
:1065B00022488746224887462248874622488746FF
:1065C00022488746224887462248874622488746EF
:1065D000224887462248874600000000000000004D
:1065E00020488746D7100010D9100010DB1000108B
:1065F000DD100010DF100010E1100010E31000109B
:10660000E5100010E7100010E9100010EB1000106A
:10661000ED1000100B1100100D1100100F110010E3
:10662000111100101311001015110010EF100010BF
:10663000F1100010F3100010ED140010F71000100E
:1066400099150010511900100D200010FF100010B6
:1066500001110010031100100511001007110010A6
:086660000911001017110010D0
:106668000050C346CDCCCC3D01000000B4630010FF
:0C667800E8630010FC63001004640010D4
:0400000510001019BE
:00000001FF
